{
	"contracts/VotingGovSys.sol": {
		"VotingSystem": {
			"abi": [
				{
					"inputs": [
						{
							"internalType": "string",
							"name": "name",
							"type": "string"
						}
					],
					"name": "addCandidate",
					"outputs": [],
					"stateMutability": "nonpayable",
					"type": "function"
				},
				{
					"inputs": [
						{
							"internalType": "uint256",
							"name": "",
							"type": "uint256"
						}
					],
					"name": "candidates",
					"outputs": [
						{
							"internalType": "uint256",
							"name": "id",
							"type": "uint256"
						},
						{
							"internalType": "string",
							"name": "name",
							"type": "string"
						},
						{
							"internalType": "uint256",
							"name": "voteCount",
							"type": "uint256"
						}
					],
					"stateMutability": "view",
					"type": "function"
				},
				{
					"inputs": [
						{
							"internalType": "uint256",
							"name": "candidateId",
							"type": "uint256"
						}
					],
					"name": "getCandidate",
					"outputs": [
						{
							"internalType": "string",
							"name": "name",
							"type": "string"
						},
						{
							"internalType": "uint256",
							"name": "voteCount",
							"type": "uint256"
						}
					],
					"stateMutability": "view",
					"type": "function"
				},
				{
					"inputs": [],
					"name": "getTotalCandidates",
					"outputs": [
						{
							"internalType": "uint256",
							"name": "",
							"type": "uint256"
						}
					],
					"stateMutability": "view",
					"type": "function"
				},
				{
					"inputs": [
						{
							"internalType": "address",
							"name": "",
							"type": "address"
						}
					],
					"name": "hasVoted",
					"outputs": [
						{
							"internalType": "bool",
							"name": "",
							"type": "bool"
						}
					],
					"stateMutability": "view",
					"type": "function"
				},
				{
					"inputs": [],
					"name": "owner",
					"outputs": [
						{
							"internalType": "address",
							"name": "",
							"type": "address"
						}
					],
					"stateMutability": "view",
					"type": "function"
				},
				{
					"inputs": [],
					"name": "totalCandidates",
					"outputs": [
						{
							"internalType": "uint256",
							"name": "",
							"type": "uint256"
						}
					],
					"stateMutability": "view",
					"type": "function"
				},
				{
					"inputs": [
						{
							"internalType": "uint256",
							"name": "candidateId",
							"type": "uint256"
						}
					],
					"name": "vote",
					"outputs": [],
					"stateMutability": "nonpayable",
					"type": "function"
				}
			],
			"devdoc": {
				"kind": "dev",
				"methods": {
					"addCandidate(string)": {
						"params": {
							"name": "The name of the candidate"
						}
					},
					"getCandidate(uint256)": {
						"params": {
							"candidateId": "ID of the candidate"
						},
						"returns": {
							"name": "The name of the candidate",
							"voteCount": "The vote count of the candidate"
						}
					},
					"getTotalCandidates()": {
						"returns": {
							"_0": "The number of candidates"
						}
					},
					"vote(uint256)": {
						"params": {
							"candidateId": "ID of the candidate to vote for"
						}
					}
				},
				"version": 1
			},
			"evm": {
				"assembly": "    /* \"contracts/VotingGovSys.sol\":90:1874  contract VotingSystem is Ownable {... */\n  mstore(0x40, 0x80)\n  callvalue\n  dup1\n  iszero\n  tag_1\n  jumpi\n  0x00\n  dup1\n  revert\ntag_1:\n  pop\n    /* \"contracts/Ownable.sol\":147:157  msg.sender */\n  caller\n    /* \"contracts/Ownable.sol\":139:144  owner */\n  0x00\n  dup1\n    /* \"contracts/Ownable.sol\":139:157  owner = msg.sender */\n  0x0100\n  exp\n  dup2\n  sload\n  dup2\n  0xffffffffffffffffffffffffffffffffffffffff\n  mul\n  not\n  and\n  swap1\n  dup4\n  0xffffffffffffffffffffffffffffffffffffffff\n  and\n  mul\n  or\n  swap1\n  sstore\n  pop\n    /* \"contracts/VotingGovSys.sol\":90:1874  contract VotingSystem is Ownable {... */\n  dataSize(sub_0)\n  dup1\n  dataOffset(sub_0)\n  0x00\n  codecopy\n  0x00\n  return\nstop\n\nsub_0: assembly {\n        /* \"contracts/VotingGovSys.sol\":90:1874  contract VotingSystem is Ownable {... */\n      mstore(0x40, 0x80)\n      callvalue\n      dup1\n      iszero\n      tag_1\n      jumpi\n      0x00\n      dup1\n      revert\n    tag_1:\n      pop\n      jumpi(tag_2, lt(calldatasize, 0x04))\n      shr(0xe0, calldataload(0x00))\n      dup1\n      0x35b8e820\n      gt\n      tag_11\n      jumpi\n      dup1\n      0x35b8e820\n      eq\n      tag_7\n      jumpi\n      dup1\n      0x3866965c\n      eq\n      tag_8\n      jumpi\n      dup1\n      0x462e91ec\n      eq\n      tag_9\n      jumpi\n      dup1\n      0x8da5cb5b\n      eq\n      tag_10\n      jumpi\n      jump(tag_2)\n    tag_11:\n      dup1\n      0x0121b93f\n      eq\n      tag_3\n      jumpi\n      dup1\n      0x09eef43e\n      eq\n      tag_4\n      jumpi\n      dup1\n      0x0deb56ab\n      eq\n      tag_5\n      jumpi\n      dup1\n      0x3477ee2e\n      eq\n      tag_6\n      jumpi\n    tag_2:\n      0x00\n      dup1\n      revert\n        /* \"contracts/VotingGovSys.sol\":842:1117  function vote(uint candidateId) external {... */\n    tag_3:\n      tag_12\n      0x04\n      dup1\n      calldatasize\n      sub\n      dup2\n      add\n      swap1\n      tag_13\n      swap2\n      swap1\n      tag_14\n      jump\t// in\n    tag_13:\n      tag_15\n      jump\t// in\n    tag_12:\n      stop\n        /* \"contracts/VotingGovSys.sol\":303:343  mapping(address => bool) public hasVoted */\n    tag_4:\n      tag_16\n      0x04\n      dup1\n      calldatasize\n      sub\n      dup2\n      add\n      swap1\n      tag_17\n      swap2\n      swap1\n      tag_18\n      jump\t// in\n    tag_17:\n      tag_19\n      jump\t// in\n    tag_16:\n      mload(0x40)\n      tag_20\n      swap2\n      swap1\n      tag_21\n      jump\t// in\n    tag_20:\n      mload(0x40)\n      dup1\n      swap2\n      sub\n      swap1\n      return\n        /* \"contracts/VotingGovSys.sol\":1771:1871  function getTotalCandidates() external view returns (uint) {... */\n    tag_5:\n      tag_22\n      tag_23\n      jump\t// in\n    tag_22:\n      mload(0x40)\n      tag_24\n      swap2\n      swap1\n      tag_25\n      jump\t// in\n    tag_24:\n      mload(0x40)\n      dup1\n      swap2\n      sub\n      swap1\n      return\n        /* \"contracts/VotingGovSys.sol\":252:296  mapping(uint => Candidate) public candidates */\n    tag_6:\n      tag_26\n      0x04\n      dup1\n      calldatasize\n      sub\n      dup2\n      add\n      swap1\n      tag_27\n      swap2\n      swap1\n      tag_14\n      jump\t// in\n    tag_27:\n      tag_28\n      jump\t// in\n    tag_26:\n      mload(0x40)\n      tag_29\n      swap4\n      swap3\n      swap2\n      swap1\n      tag_30\n      jump\t// in\n    tag_29:\n      mload(0x40)\n      dup1\n      swap2\n      sub\n      swap1\n      return\n        /* \"contracts/VotingGovSys.sol\":1335:1669  function getCandidate(uint candidateId)... */\n    tag_7:\n      tag_31\n      0x04\n      dup1\n      calldatasize\n      sub\n      dup2\n      add\n      swap1\n      tag_32\n      swap2\n      swap1\n      tag_14\n      jump\t// in\n    tag_32:\n      tag_33\n      jump\t// in\n    tag_31:\n      mload(0x40)\n      tag_34\n      swap3\n      swap2\n      swap1\n      tag_35\n      jump\t// in\n    tag_34:\n      mload(0x40)\n      dup1\n      swap2\n      sub\n      swap1\n      return\n        /* \"contracts/VotingGovSys.sol\":352:379  uint public totalCandidates */\n    tag_8:\n      tag_36\n      tag_37\n      jump\t// in\n    tag_36:\n      mload(0x40)\n      tag_38\n      swap2\n      swap1\n      tag_25\n      jump\t// in\n    tag_38:\n      mload(0x40)\n      dup1\n      swap2\n      sub\n      swap1\n      return\n        /* \"contracts/VotingGovSys.sol\":486:736  function addCandidate(string calldata name) external onlyOwner {... */\n    tag_9:\n      tag_39\n      0x04\n      dup1\n      calldatasize\n      sub\n      dup2\n      add\n      swap1\n      tag_40\n      swap2\n      swap1\n      tag_41\n      jump\t// in\n    tag_40:\n      tag_42\n      jump\t// in\n    tag_39:\n      stop\n        /* \"contracts/Ownable.sol\":85:105  address public owner */\n    tag_10:\n      tag_43\n      tag_44\n      jump\t// in\n    tag_43:\n      mload(0x40)\n      tag_45\n      swap2\n      swap1\n      tag_46\n      jump\t// in\n    tag_45:\n      mload(0x40)\n      dup1\n      swap2\n      sub\n      swap1\n      return\n        /* \"contracts/VotingGovSys.sol\":842:1117  function vote(uint candidateId) external {... */\n    tag_15:\n        /* \"contracts/VotingGovSys.sol\":903:911  hasVoted */\n      0x02\n        /* \"contracts/VotingGovSys.sol\":903:923  hasVoted[msg.sender] */\n      0x00\n        /* \"contracts/VotingGovSys.sol\":912:922  msg.sender */\n      caller\n        /* \"contracts/VotingGovSys.sol\":903:923  hasVoted[msg.sender] */\n      0xffffffffffffffffffffffffffffffffffffffff\n      and\n      0xffffffffffffffffffffffffffffffffffffffff\n      and\n      dup2\n      mstore\n      0x20\n      add\n      swap1\n      dup2\n      mstore\n      0x20\n      add\n      0x00\n      keccak256\n      0x00\n      swap1\n      sload\n      swap1\n      0x0100\n      exp\n      swap1\n      div\n      0xff\n      and\n        /* \"contracts/VotingGovSys.sol\":902:923  !hasVoted[msg.sender] */\n      iszero\n        /* \"contracts/VotingGovSys.sol\":894:950  require(!hasVoted[msg.sender], \"You have already voted\") */\n      tag_48\n      jumpi\n      mload(0x40)\n      0x08c379a000000000000000000000000000000000000000000000000000000000\n      dup2\n      mstore\n      0x04\n      add\n      tag_49\n      swap1\n      tag_50\n      jump\t// in\n    tag_49:\n      mload(0x40)\n      dup1\n      swap2\n      sub\n      swap1\n      revert\n    tag_48:\n        /* \"contracts/VotingGovSys.sol\":983:998  totalCandidates */\n      sload(0x03)\n        /* \"contracts/VotingGovSys.sol\":969:980  candidateId */\n      dup2\n        /* \"contracts/VotingGovSys.sol\":969:998  candidateId < totalCandidates */\n      lt\n        /* \"contracts/VotingGovSys.sol\":961:1023  require(candidateId < totalCandidates, \"Invalid candidate ID\") */\n      tag_51\n      jumpi\n      mload(0x40)\n      0x08c379a000000000000000000000000000000000000000000000000000000000\n      dup2\n      mstore\n      0x04\n      add\n      tag_52\n      swap1\n      tag_53\n      jump\t// in\n    tag_52:\n      mload(0x40)\n      dup1\n      swap2\n      sub\n      swap1\n      revert\n    tag_51:\n        /* \"contracts/VotingGovSys.sol\":1059:1063  true */\n      0x01\n        /* \"contracts/VotingGovSys.sol\":1036:1044  hasVoted */\n      0x02\n        /* \"contracts/VotingGovSys.sol\":1036:1056  hasVoted[msg.sender] */\n      0x00\n        /* \"contracts/VotingGovSys.sol\":1045:1055  msg.sender */\n      caller\n        /* \"contracts/VotingGovSys.sol\":1036:1056  hasVoted[msg.sender] */\n      0xffffffffffffffffffffffffffffffffffffffff\n      and\n      0xffffffffffffffffffffffffffffffffffffffff\n      and\n      dup2\n      mstore\n      0x20\n      add\n      swap1\n      dup2\n      mstore\n      0x20\n      add\n      0x00\n      keccak256\n      0x00\n        /* \"contracts/VotingGovSys.sol\":1036:1063  hasVoted[msg.sender] = true */\n      0x0100\n      exp\n      dup2\n      sload\n      dup2\n      0xff\n      mul\n      not\n      and\n      swap1\n      dup4\n      iszero\n      iszero\n      mul\n      or\n      swap1\n      sstore\n      pop\n        /* \"contracts/VotingGovSys.sol\":1074:1084  candidates */\n      0x01\n        /* \"contracts/VotingGovSys.sol\":1074:1097  candidates[candidateId] */\n      0x00\n        /* \"contracts/VotingGovSys.sol\":1085:1096  candidateId */\n      dup3\n        /* \"contracts/VotingGovSys.sol\":1074:1097  candidates[candidateId] */\n      dup2\n      mstore\n      0x20\n      add\n      swap1\n      dup2\n      mstore\n      0x20\n      add\n      0x00\n      keccak256\n        /* \"contracts/VotingGovSys.sol\":1074:1107  candidates[candidateId].voteCount */\n      0x02\n      add\n      0x00\n        /* \"contracts/VotingGovSys.sol\":1074:1109  candidates[candidateId].voteCount++ */\n      dup2\n      sload\n      dup1\n      swap3\n      swap2\n      swap1\n      tag_54\n      swap1\n      tag_55\n      jump\t// in\n    tag_54:\n      swap2\n      swap1\n      pop\n      sstore\n      pop\n        /* \"contracts/VotingGovSys.sol\":842:1117  function vote(uint candidateId) external {... */\n      pop\n      jump\t// out\n        /* \"contracts/VotingGovSys.sol\":303:343  mapping(address => bool) public hasVoted */\n    tag_19:\n      mstore(0x20, 0x02)\n      dup1\n      0x00\n      mstore\n      keccak256(0x00, 0x40)\n      0x00\n      swap2\n      pop\n      sload\n      swap1\n      0x0100\n      exp\n      swap1\n      div\n      0xff\n      and\n      dup2\n      jump\t// out\n        /* \"contracts/VotingGovSys.sol\":1771:1871  function getTotalCandidates() external view returns (uint) {... */\n    tag_23:\n        /* \"contracts/VotingGovSys.sol\":1824:1828  uint */\n      0x00\n        /* \"contracts/VotingGovSys.sol\":1848:1863  totalCandidates */\n      sload(0x03)\n        /* \"contracts/VotingGovSys.sol\":1841:1863  return totalCandidates */\n      swap1\n      pop\n        /* \"contracts/VotingGovSys.sol\":1771:1871  function getTotalCandidates() external view returns (uint) {... */\n      swap1\n      jump\t// out\n        /* \"contracts/VotingGovSys.sol\":252:296  mapping(uint => Candidate) public candidates */\n    tag_28:\n      mstore(0x20, 0x01)\n      dup1\n      0x00\n      mstore\n      keccak256(0x00, 0x40)\n      0x00\n      swap2\n      pop\n      swap1\n      pop\n      dup1\n      0x00\n      add\n      sload\n      swap1\n      dup1\n      0x01\n      add\n      dup1\n      sload\n      tag_57\n      swap1\n      tag_58\n      jump\t// in\n    tag_57:\n      dup1\n      0x1f\n      add\n      0x20\n      dup1\n      swap2\n      div\n      mul\n      0x20\n      add\n      mload(0x40)\n      swap1\n      dup2\n      add\n      0x40\n      mstore\n      dup1\n      swap3\n      swap2\n      swap1\n      dup2\n      dup2\n      mstore\n      0x20\n      add\n      dup3\n      dup1\n      sload\n      tag_59\n      swap1\n      tag_58\n      jump\t// in\n    tag_59:\n      dup1\n      iszero\n      tag_60\n      jumpi\n      dup1\n      0x1f\n      lt\n      tag_61\n      jumpi\n      0x0100\n      dup1\n      dup4\n      sload\n      div\n      mul\n      dup4\n      mstore\n      swap2\n      0x20\n      add\n      swap2\n      jump(tag_60)\n    tag_61:\n      dup3\n      add\n      swap2\n      swap1\n      0x00\n      mstore\n      keccak256(0x00, 0x20)\n      swap1\n    tag_62:\n      dup2\n      sload\n      dup2\n      mstore\n      swap1\n      0x01\n      add\n      swap1\n      0x20\n      add\n      dup1\n      dup4\n      gt\n      tag_62\n      jumpi\n      dup3\n      swap1\n      sub\n      0x1f\n      and\n      dup3\n      add\n      swap2\n    tag_60:\n      pop\n      pop\n      pop\n      pop\n      pop\n      swap1\n      dup1\n      0x02\n      add\n      sload\n      swap1\n      pop\n      dup4\n      jump\t// out\n        /* \"contracts/VotingGovSys.sol\":1335:1669  function getCandidate(uint candidateId)... */\n    tag_33:\n        /* \"contracts/VotingGovSys.sol\":1425:1443  string memory name */\n      0x60\n        /* \"contracts/VotingGovSys.sol\":1445:1459  uint voteCount */\n      0x00\n        /* \"contracts/VotingGovSys.sol\":1499:1514  totalCandidates */\n      sload(0x03)\n        /* \"contracts/VotingGovSys.sol\":1485:1496  candidateId */\n      dup4\n        /* \"contracts/VotingGovSys.sol\":1485:1514  candidateId < totalCandidates */\n      lt\n        /* \"contracts/VotingGovSys.sol\":1477:1543  require(candidateId < totalCandidates, \"Candidate does not exist\") */\n      tag_64\n      jumpi\n      mload(0x40)\n      0x08c379a000000000000000000000000000000000000000000000000000000000\n      dup2\n      mstore\n      0x04\n      add\n      tag_65\n      swap1\n      tag_66\n      jump\t// in\n    tag_65:\n      mload(0x40)\n      dup1\n      swap2\n      sub\n      swap1\n      revert\n    tag_64:\n        /* \"contracts/VotingGovSys.sol\":1554:1580  Candidate memory candidate */\n      0x00\n        /* \"contracts/VotingGovSys.sol\":1583:1593  candidates */\n      0x01\n        /* \"contracts/VotingGovSys.sol\":1583:1606  candidates[candidateId] */\n      0x00\n        /* \"contracts/VotingGovSys.sol\":1594:1605  candidateId */\n      dup6\n        /* \"contracts/VotingGovSys.sol\":1583:1606  candidates[candidateId] */\n      dup2\n      mstore\n      0x20\n      add\n      swap1\n      dup2\n      mstore\n      0x20\n      add\n      0x00\n      keccak256\n        /* \"contracts/VotingGovSys.sol\":1554:1606  Candidate memory candidate = candidates[candidateId] */\n      mload(0x40)\n      dup1\n      0x60\n      add\n      0x40\n      mstore\n      swap1\n      dup2\n      0x00\n      dup3\n      add\n      sload\n      dup2\n      mstore\n      0x20\n      add\n      0x01\n      dup3\n      add\n      dup1\n      sload\n      tag_67\n      swap1\n      tag_58\n      jump\t// in\n    tag_67:\n      dup1\n      0x1f\n      add\n      0x20\n      dup1\n      swap2\n      div\n      mul\n      0x20\n      add\n      mload(0x40)\n      swap1\n      dup2\n      add\n      0x40\n      mstore\n      dup1\n      swap3\n      swap2\n      swap1\n      dup2\n      dup2\n      mstore\n      0x20\n      add\n      dup3\n      dup1\n      sload\n      tag_68\n      swap1\n      tag_58\n      jump\t// in\n    tag_68:\n      dup1\n      iszero\n      tag_69\n      jumpi\n      dup1\n      0x1f\n      lt\n      tag_70\n      jumpi\n      0x0100\n      dup1\n      dup4\n      sload\n      div\n      mul\n      dup4\n      mstore\n      swap2\n      0x20\n      add\n      swap2\n      jump(tag_69)\n    tag_70:\n      dup3\n      add\n      swap2\n      swap1\n      0x00\n      mstore\n      keccak256(0x00, 0x20)\n      swap1\n    tag_71:\n      dup2\n      sload\n      dup2\n      mstore\n      swap1\n      0x01\n      add\n      swap1\n      0x20\n      add\n      dup1\n      dup4\n      gt\n      tag_71\n      jumpi\n      dup3\n      swap1\n      sub\n      0x1f\n      and\n      dup3\n      add\n      swap2\n    tag_69:\n      pop\n      pop\n      pop\n      pop\n      pop\n      dup2\n      mstore\n      0x20\n      add\n      0x02\n      dup3\n      add\n      sload\n      dup2\n      mstore\n      pop\n      pop\n      swap1\n      pop\n        /* \"contracts/VotingGovSys.sol\":1625:1634  candidate */\n      dup1\n        /* \"contracts/VotingGovSys.sol\":1625:1639  candidate.name */\n      0x20\n      add\n      mload\n        /* \"contracts/VotingGovSys.sol\":1641:1650  candidate */\n      dup2\n        /* \"contracts/VotingGovSys.sol\":1641:1660  candidate.voteCount */\n      0x40\n      add\n      mload\n        /* \"contracts/VotingGovSys.sol\":1617:1661  return (candidate.name, candidate.voteCount) */\n      swap3\n      pop\n      swap3\n      pop\n      pop\n        /* \"contracts/VotingGovSys.sol\":1335:1669  function getCandidate(uint candidateId)... */\n      swap2\n      pop\n      swap2\n      jump\t// out\n        /* \"contracts/VotingGovSys.sol\":352:379  uint public totalCandidates */\n    tag_37:\n      sload(0x03)\n      dup2\n      jump\t// out\n        /* \"contracts/VotingGovSys.sol\":486:736  function addCandidate(string calldata name) external onlyOwner {... */\n    tag_42:\n        /* \"contracts/Ownable.sol\":228:233  owner */\n      0x00\n      dup1\n      sload\n      swap1\n      0x0100\n      exp\n      swap1\n      div\n      0xffffffffffffffffffffffffffffffffffffffff\n      and\n        /* \"contracts/Ownable.sol\":214:233  msg.sender == owner */\n      0xffffffffffffffffffffffffffffffffffffffff\n      and\n        /* \"contracts/Ownable.sol\":214:224  msg.sender */\n      caller\n        /* \"contracts/Ownable.sol\":214:233  msg.sender == owner */\n      0xffffffffffffffffffffffffffffffffffffffff\n      and\n      eq\n        /* \"contracts/Ownable.sol\":206:281  require(msg.sender == owner, \"Only contract owner can perform this action\") */\n      tag_73\n      jumpi\n      mload(0x40)\n      0x08c379a000000000000000000000000000000000000000000000000000000000\n      dup2\n      mstore\n      0x04\n      add\n      tag_74\n      swap1\n      tag_75\n      jump\t// in\n    tag_74:\n      mload(0x40)\n      dup1\n      swap2\n      sub\n      swap1\n      revert\n    tag_73:\n        /* \"contracts/VotingGovSys.sol\":590:698  Candidate({... */\n      mload(0x40)\n      dup1\n      0x60\n      add\n      0x40\n      mstore\n      dup1\n        /* \"contracts/VotingGovSys.sol\":619:634  totalCandidates */\n      sload(0x03)\n        /* \"contracts/VotingGovSys.sol\":590:698  Candidate({... */\n      dup2\n      mstore\n      0x20\n      add\n        /* \"contracts/VotingGovSys.sol\":655:659  name */\n      dup4\n      dup4\n        /* \"contracts/VotingGovSys.sol\":590:698  Candidate({... */\n      dup1\n      dup1\n      0x1f\n      add\n      0x20\n      dup1\n      swap2\n      div\n      mul\n      0x20\n      add\n      mload(0x40)\n      swap1\n      dup2\n      add\n      0x40\n      mstore\n      dup1\n      swap4\n      swap3\n      swap2\n      swap1\n      dup2\n      dup2\n      mstore\n      0x20\n      add\n      dup4\n      dup4\n      dup1\n      dup3\n      dup5\n      calldatacopy\n      0x00\n      dup2\n      dup5\n      add\n      mstore\n      not(0x1f)\n      0x1f\n      dup3\n      add\n      and\n      swap1\n      pop\n      dup1\n      dup4\n      add\n      swap3\n      pop\n      pop\n      pop\n      pop\n      pop\n      pop\n      pop\n      dup2\n      mstore\n      0x20\n      add\n        /* \"contracts/VotingGovSys.sol\":685:686  0 */\n      0x00\n        /* \"contracts/VotingGovSys.sol\":590:698  Candidate({... */\n      dup2\n      mstore\n      pop\n        /* \"contracts/VotingGovSys.sol\":560:570  candidates */\n      0x01\n        /* \"contracts/VotingGovSys.sol\":560:587  candidates[totalCandidates] */\n      0x00\n        /* \"contracts/VotingGovSys.sol\":571:586  totalCandidates */\n      sload(0x03)\n        /* \"contracts/VotingGovSys.sol\":560:587  candidates[totalCandidates] */\n      dup2\n      mstore\n      0x20\n      add\n      swap1\n      dup2\n      mstore\n      0x20\n      add\n      0x00\n      keccak256\n        /* \"contracts/VotingGovSys.sol\":560:698  candidates[totalCandidates] = Candidate({... */\n      0x00\n      dup3\n      add\n      mload\n      dup2\n      0x00\n      add\n      sstore\n      0x20\n      dup3\n      add\n      mload\n      dup2\n      0x01\n      add\n      swap1\n      dup2\n      tag_77\n      swap2\n      swap1\n      tag_78\n      jump\t// in\n    tag_77:\n      pop\n      0x40\n      dup3\n      add\n      mload\n      dup2\n      0x02\n      add\n      sstore\n      swap1\n      pop\n      pop\n        /* \"contracts/VotingGovSys.sol\":711:726  totalCandidates */\n      0x03\n      0x00\n        /* \"contracts/VotingGovSys.sol\":711:728  totalCandidates++ */\n      dup2\n      sload\n      dup1\n      swap3\n      swap2\n      swap1\n      tag_79\n      swap1\n      tag_55\n      jump\t// in\n    tag_79:\n      swap2\n      swap1\n      pop\n      sstore\n      pop\n        /* \"contracts/VotingGovSys.sol\":486:736  function addCandidate(string calldata name) external onlyOwner {... */\n      pop\n      pop\n      jump\t// out\n        /* \"contracts/Ownable.sol\":85:105  address public owner */\n    tag_44:\n      0x00\n      dup1\n      sload\n      swap1\n      0x0100\n      exp\n      swap1\n      div\n      0xffffffffffffffffffffffffffffffffffffffff\n      and\n      dup2\n      jump\t// out\n        /* \"#utility.yul\":88:205   */\n    tag_81:\n        /* \"#utility.yul\":197:198   */\n      0x00\n        /* \"#utility.yul\":194:195   */\n      dup1\n        /* \"#utility.yul\":187:199   */\n      revert\n        /* \"#utility.yul\":211:328   */\n    tag_82:\n        /* \"#utility.yul\":320:321   */\n      0x00\n        /* \"#utility.yul\":317:318   */\n      dup1\n        /* \"#utility.yul\":310:322   */\n      revert\n        /* \"#utility.yul\":334:411   */\n    tag_83:\n        /* \"#utility.yul\":371:378   */\n      0x00\n        /* \"#utility.yul\":400:405   */\n      dup2\n        /* \"#utility.yul\":389:405   */\n      swap1\n      pop\n        /* \"#utility.yul\":334:411   */\n      swap2\n      swap1\n      pop\n      jump\t// out\n        /* \"#utility.yul\":417:539   */\n    tag_84:\n        /* \"#utility.yul\":490:514   */\n      tag_135\n        /* \"#utility.yul\":508:513   */\n      dup2\n        /* \"#utility.yul\":490:514   */\n      tag_83\n      jump\t// in\n    tag_135:\n        /* \"#utility.yul\":483:488   */\n      dup2\n        /* \"#utility.yul\":480:515   */\n      eq\n        /* \"#utility.yul\":470:533   */\n      tag_136\n      jumpi\n        /* \"#utility.yul\":529:530   */\n      0x00\n        /* \"#utility.yul\":526:527   */\n      dup1\n        /* \"#utility.yul\":519:531   */\n      revert\n        /* \"#utility.yul\":470:533   */\n    tag_136:\n        /* \"#utility.yul\":417:539   */\n      pop\n      jump\t// out\n        /* \"#utility.yul\":545:684   */\n    tag_85:\n        /* \"#utility.yul\":591:596   */\n      0x00\n        /* \"#utility.yul\":629:635   */\n      dup2\n        /* \"#utility.yul\":616:636   */\n      calldataload\n        /* \"#utility.yul\":607:636   */\n      swap1\n      pop\n        /* \"#utility.yul\":645:678   */\n      tag_138\n        /* \"#utility.yul\":672:677   */\n      dup2\n        /* \"#utility.yul\":645:678   */\n      tag_84\n      jump\t// in\n    tag_138:\n        /* \"#utility.yul\":545:684   */\n      swap3\n      swap2\n      pop\n      pop\n      jump\t// out\n        /* \"#utility.yul\":690:1019   */\n    tag_14:\n        /* \"#utility.yul\":749:755   */\n      0x00\n        /* \"#utility.yul\":798:800   */\n      0x20\n        /* \"#utility.yul\":786:795   */\n      dup3\n        /* \"#utility.yul\":777:784   */\n      dup5\n        /* \"#utility.yul\":773:796   */\n      sub\n        /* \"#utility.yul\":769:801   */\n      slt\n        /* \"#utility.yul\":766:885   */\n      iszero\n      tag_140\n      jumpi\n        /* \"#utility.yul\":804:883   */\n      tag_141\n      tag_81\n      jump\t// in\n    tag_141:\n        /* \"#utility.yul\":766:885   */\n    tag_140:\n        /* \"#utility.yul\":924:925   */\n      0x00\n        /* \"#utility.yul\":949:1002   */\n      tag_142\n        /* \"#utility.yul\":994:1001   */\n      dup5\n        /* \"#utility.yul\":985:991   */\n      dup3\n        /* \"#utility.yul\":974:983   */\n      dup6\n        /* \"#utility.yul\":970:992   */\n      add\n        /* \"#utility.yul\":949:1002   */\n      tag_85\n      jump\t// in\n    tag_142:\n        /* \"#utility.yul\":939:1002   */\n      swap2\n      pop\n        /* \"#utility.yul\":895:1012   */\n      pop\n        /* \"#utility.yul\":690:1019   */\n      swap3\n      swap2\n      pop\n      pop\n      jump\t// out\n        /* \"#utility.yul\":1025:1151   */\n    tag_86:\n        /* \"#utility.yul\":1062:1069   */\n      0x00\n        /* \"#utility.yul\":1102:1144   */\n      0xffffffffffffffffffffffffffffffffffffffff\n        /* \"#utility.yul\":1095:1100   */\n      dup3\n        /* \"#utility.yul\":1091:1145   */\n      and\n        /* \"#utility.yul\":1080:1145   */\n      swap1\n      pop\n        /* \"#utility.yul\":1025:1151   */\n      swap2\n      swap1\n      pop\n      jump\t// out\n        /* \"#utility.yul\":1157:1253   */\n    tag_87:\n        /* \"#utility.yul\":1194:1201   */\n      0x00\n        /* \"#utility.yul\":1223:1247   */\n      tag_145\n        /* \"#utility.yul\":1241:1246   */\n      dup3\n        /* \"#utility.yul\":1223:1247   */\n      tag_86\n      jump\t// in\n    tag_145:\n        /* \"#utility.yul\":1212:1247   */\n      swap1\n      pop\n        /* \"#utility.yul\":1157:1253   */\n      swap2\n      swap1\n      pop\n      jump\t// out\n        /* \"#utility.yul\":1259:1381   */\n    tag_88:\n        /* \"#utility.yul\":1332:1356   */\n      tag_147\n        /* \"#utility.yul\":1350:1355   */\n      dup2\n        /* \"#utility.yul\":1332:1356   */\n      tag_87\n      jump\t// in\n    tag_147:\n        /* \"#utility.yul\":1325:1330   */\n      dup2\n        /* \"#utility.yul\":1322:1357   */\n      eq\n        /* \"#utility.yul\":1312:1375   */\n      tag_148\n      jumpi\n        /* \"#utility.yul\":1371:1372   */\n      0x00\n        /* \"#utility.yul\":1368:1369   */\n      dup1\n        /* \"#utility.yul\":1361:1373   */\n      revert\n        /* \"#utility.yul\":1312:1375   */\n    tag_148:\n        /* \"#utility.yul\":1259:1381   */\n      pop\n      jump\t// out\n        /* \"#utility.yul\":1387:1526   */\n    tag_89:\n        /* \"#utility.yul\":1433:1438   */\n      0x00\n        /* \"#utility.yul\":1471:1477   */\n      dup2\n        /* \"#utility.yul\":1458:1478   */\n      calldataload\n        /* \"#utility.yul\":1449:1478   */\n      swap1\n      pop\n        /* \"#utility.yul\":1487:1520   */\n      tag_150\n        /* \"#utility.yul\":1514:1519   */\n      dup2\n        /* \"#utility.yul\":1487:1520   */\n      tag_88\n      jump\t// in\n    tag_150:\n        /* \"#utility.yul\":1387:1526   */\n      swap3\n      swap2\n      pop\n      pop\n      jump\t// out\n        /* \"#utility.yul\":1532:1861   */\n    tag_18:\n        /* \"#utility.yul\":1591:1597   */\n      0x00\n        /* \"#utility.yul\":1640:1642   */\n      0x20\n        /* \"#utility.yul\":1628:1637   */\n      dup3\n        /* \"#utility.yul\":1619:1626   */\n      dup5\n        /* \"#utility.yul\":1615:1638   */\n      sub\n        /* \"#utility.yul\":1611:1643   */\n      slt\n        /* \"#utility.yul\":1608:1727   */\n      iszero\n      tag_152\n      jumpi\n        /* \"#utility.yul\":1646:1725   */\n      tag_153\n      tag_81\n      jump\t// in\n    tag_153:\n        /* \"#utility.yul\":1608:1727   */\n    tag_152:\n        /* \"#utility.yul\":1766:1767   */\n      0x00\n        /* \"#utility.yul\":1791:1844   */\n      tag_154\n        /* \"#utility.yul\":1836:1843   */\n      dup5\n        /* \"#utility.yul\":1827:1833   */\n      dup3\n        /* \"#utility.yul\":1816:1825   */\n      dup6\n        /* \"#utility.yul\":1812:1834   */\n      add\n        /* \"#utility.yul\":1791:1844   */\n      tag_89\n      jump\t// in\n    tag_154:\n        /* \"#utility.yul\":1781:1844   */\n      swap2\n      pop\n        /* \"#utility.yul\":1737:1854   */\n      pop\n        /* \"#utility.yul\":1532:1861   */\n      swap3\n      swap2\n      pop\n      pop\n      jump\t// out\n        /* \"#utility.yul\":1867:1957   */\n    tag_90:\n        /* \"#utility.yul\":1901:1908   */\n      0x00\n        /* \"#utility.yul\":1944:1949   */\n      dup2\n        /* \"#utility.yul\":1937:1950   */\n      iszero\n        /* \"#utility.yul\":1930:1951   */\n      iszero\n        /* \"#utility.yul\":1919:1951   */\n      swap1\n      pop\n        /* \"#utility.yul\":1867:1957   */\n      swap2\n      swap1\n      pop\n      jump\t// out\n        /* \"#utility.yul\":1963:2072   */\n    tag_91:\n        /* \"#utility.yul\":2044:2065   */\n      tag_157\n        /* \"#utility.yul\":2059:2064   */\n      dup2\n        /* \"#utility.yul\":2044:2065   */\n      tag_90\n      jump\t// in\n    tag_157:\n        /* \"#utility.yul\":2039:2042   */\n      dup3\n        /* \"#utility.yul\":2032:2066   */\n      mstore\n        /* \"#utility.yul\":1963:2072   */\n      pop\n      pop\n      jump\t// out\n        /* \"#utility.yul\":2078:2288   */\n    tag_21:\n        /* \"#utility.yul\":2165:2169   */\n      0x00\n        /* \"#utility.yul\":2203:2205   */\n      0x20\n        /* \"#utility.yul\":2192:2201   */\n      dup3\n        /* \"#utility.yul\":2188:2206   */\n      add\n        /* \"#utility.yul\":2180:2206   */\n      swap1\n      pop\n        /* \"#utility.yul\":2216:2281   */\n      tag_159\n        /* \"#utility.yul\":2278:2279   */\n      0x00\n        /* \"#utility.yul\":2267:2276   */\n      dup4\n        /* \"#utility.yul\":2263:2280   */\n      add\n        /* \"#utility.yul\":2254:2260   */\n      dup5\n        /* \"#utility.yul\":2216:2281   */\n      tag_91\n      jump\t// in\n    tag_159:\n        /* \"#utility.yul\":2078:2288   */\n      swap3\n      swap2\n      pop\n      pop\n      jump\t// out\n        /* \"#utility.yul\":2294:2412   */\n    tag_92:\n        /* \"#utility.yul\":2381:2405   */\n      tag_161\n        /* \"#utility.yul\":2399:2404   */\n      dup2\n        /* \"#utility.yul\":2381:2405   */\n      tag_83\n      jump\t// in\n    tag_161:\n        /* \"#utility.yul\":2376:2379   */\n      dup3\n        /* \"#utility.yul\":2369:2406   */\n      mstore\n        /* \"#utility.yul\":2294:2412   */\n      pop\n      pop\n      jump\t// out\n        /* \"#utility.yul\":2418:2640   */\n    tag_25:\n        /* \"#utility.yul\":2511:2515   */\n      0x00\n        /* \"#utility.yul\":2549:2551   */\n      0x20\n        /* \"#utility.yul\":2538:2547   */\n      dup3\n        /* \"#utility.yul\":2534:2552   */\n      add\n        /* \"#utility.yul\":2526:2552   */\n      swap1\n      pop\n        /* \"#utility.yul\":2562:2633   */\n      tag_163\n        /* \"#utility.yul\":2630:2631   */\n      0x00\n        /* \"#utility.yul\":2619:2628   */\n      dup4\n        /* \"#utility.yul\":2615:2632   */\n      add\n        /* \"#utility.yul\":2606:2612   */\n      dup5\n        /* \"#utility.yul\":2562:2633   */\n      tag_92\n      jump\t// in\n    tag_163:\n        /* \"#utility.yul\":2418:2640   */\n      swap3\n      swap2\n      pop\n      pop\n      jump\t// out\n        /* \"#utility.yul\":2646:2745   */\n    tag_93:\n        /* \"#utility.yul\":2698:2704   */\n      0x00\n        /* \"#utility.yul\":2732:2737   */\n      dup2\n        /* \"#utility.yul\":2726:2738   */\n      mload\n        /* \"#utility.yul\":2716:2738   */\n      swap1\n      pop\n        /* \"#utility.yul\":2646:2745   */\n      swap2\n      swap1\n      pop\n      jump\t// out\n        /* \"#utility.yul\":2751:2920   */\n    tag_94:\n        /* \"#utility.yul\":2835:2846   */\n      0x00\n        /* \"#utility.yul\":2869:2875   */\n      dup3\n        /* \"#utility.yul\":2864:2867   */\n      dup3\n        /* \"#utility.yul\":2857:2876   */\n      mstore\n        /* \"#utility.yul\":2909:2913   */\n      0x20\n        /* \"#utility.yul\":2904:2907   */\n      dup3\n        /* \"#utility.yul\":2900:2914   */\n      add\n        /* \"#utility.yul\":2885:2914   */\n      swap1\n      pop\n        /* \"#utility.yul\":2751:2920   */\n      swap3\n      swap2\n      pop\n      pop\n      jump\t// out\n        /* \"#utility.yul\":2926:3172   */\n    tag_95:\n        /* \"#utility.yul\":3007:3008   */\n      0x00\n        /* \"#utility.yul\":3017:3130   */\n    tag_167:\n        /* \"#utility.yul\":3031:3037   */\n      dup4\n        /* \"#utility.yul\":3028:3029   */\n      dup2\n        /* \"#utility.yul\":3025:3038   */\n      lt\n        /* \"#utility.yul\":3017:3130   */\n      iszero\n      tag_169\n      jumpi\n        /* \"#utility.yul\":3116:3117   */\n      dup1\n        /* \"#utility.yul\":3111:3114   */\n      dup3\n        /* \"#utility.yul\":3107:3118   */\n      add\n        /* \"#utility.yul\":3101:3119   */\n      mload\n        /* \"#utility.yul\":3097:3098   */\n      dup2\n        /* \"#utility.yul\":3092:3095   */\n      dup5\n        /* \"#utility.yul\":3088:3099   */\n      add\n        /* \"#utility.yul\":3081:3120   */\n      mstore\n        /* \"#utility.yul\":3053:3055   */\n      0x20\n        /* \"#utility.yul\":3050:3051   */\n      dup2\n        /* \"#utility.yul\":3046:3056   */\n      add\n        /* \"#utility.yul\":3041:3056   */\n      swap1\n      pop\n        /* \"#utility.yul\":3017:3130   */\n      jump(tag_167)\n    tag_169:\n        /* \"#utility.yul\":3164:3165   */\n      0x00\n        /* \"#utility.yul\":3155:3161   */\n      dup5\n        /* \"#utility.yul\":3150:3153   */\n      dup5\n        /* \"#utility.yul\":3146:3162   */\n      add\n        /* \"#utility.yul\":3139:3166   */\n      mstore\n        /* \"#utility.yul\":2988:3172   */\n      pop\n        /* \"#utility.yul\":2926:3172   */\n      pop\n      pop\n      pop\n      jump\t// out\n        /* \"#utility.yul\":3178:3280   */\n    tag_96:\n        /* \"#utility.yul\":3219:3225   */\n      0x00\n        /* \"#utility.yul\":3270:3272   */\n      0x1f\n        /* \"#utility.yul\":3266:3273   */\n      not\n        /* \"#utility.yul\":3261:3263   */\n      0x1f\n        /* \"#utility.yul\":3254:3259   */\n      dup4\n        /* \"#utility.yul\":3250:3264   */\n      add\n        /* \"#utility.yul\":3246:3274   */\n      and\n        /* \"#utility.yul\":3236:3274   */\n      swap1\n      pop\n        /* \"#utility.yul\":3178:3280   */\n      swap2\n      swap1\n      pop\n      jump\t// out\n        /* \"#utility.yul\":3286:3663   */\n    tag_97:\n        /* \"#utility.yul\":3374:3377   */\n      0x00\n        /* \"#utility.yul\":3402:3441   */\n      tag_172\n        /* \"#utility.yul\":3435:3440   */\n      dup3\n        /* \"#utility.yul\":3402:3441   */\n      tag_93\n      jump\t// in\n    tag_172:\n        /* \"#utility.yul\":3457:3528   */\n      tag_173\n        /* \"#utility.yul\":3521:3527   */\n      dup2\n        /* \"#utility.yul\":3516:3519   */\n      dup6\n        /* \"#utility.yul\":3457:3528   */\n      tag_94\n      jump\t// in\n    tag_173:\n        /* \"#utility.yul\":3450:3528   */\n      swap4\n      pop\n        /* \"#utility.yul\":3537:3602   */\n      tag_174\n        /* \"#utility.yul\":3595:3601   */\n      dup2\n        /* \"#utility.yul\":3590:3593   */\n      dup6\n        /* \"#utility.yul\":3583:3587   */\n      0x20\n        /* \"#utility.yul\":3576:3581   */\n      dup7\n        /* \"#utility.yul\":3572:3588   */\n      add\n        /* \"#utility.yul\":3537:3602   */\n      tag_95\n      jump\t// in\n    tag_174:\n        /* \"#utility.yul\":3627:3656   */\n      tag_175\n        /* \"#utility.yul\":3649:3655   */\n      dup2\n        /* \"#utility.yul\":3627:3656   */\n      tag_96\n      jump\t// in\n    tag_175:\n        /* \"#utility.yul\":3622:3625   */\n      dup5\n        /* \"#utility.yul\":3618:3657   */\n      add\n        /* \"#utility.yul\":3611:3657   */\n      swap2\n      pop\n        /* \"#utility.yul\":3378:3663   */\n      pop\n        /* \"#utility.yul\":3286:3663   */\n      swap3\n      swap2\n      pop\n      pop\n      jump\t// out\n        /* \"#utility.yul\":3669:4202   */\n    tag_30:\n        /* \"#utility.yul\":3838:3842   */\n      0x00\n        /* \"#utility.yul\":3876:3878   */\n      0x60\n        /* \"#utility.yul\":3865:3874   */\n      dup3\n        /* \"#utility.yul\":3861:3879   */\n      add\n        /* \"#utility.yul\":3853:3879   */\n      swap1\n      pop\n        /* \"#utility.yul\":3889:3960   */\n      tag_177\n        /* \"#utility.yul\":3957:3958   */\n      0x00\n        /* \"#utility.yul\":3946:3955   */\n      dup4\n        /* \"#utility.yul\":3942:3959   */\n      add\n        /* \"#utility.yul\":3933:3939   */\n      dup7\n        /* \"#utility.yul\":3889:3960   */\n      tag_92\n      jump\t// in\n    tag_177:\n        /* \"#utility.yul\":4007:4016   */\n      dup2\n        /* \"#utility.yul\":4001:4005   */\n      dup2\n        /* \"#utility.yul\":3997:4017   */\n      sub\n        /* \"#utility.yul\":3992:3994   */\n      0x20\n        /* \"#utility.yul\":3981:3990   */\n      dup4\n        /* \"#utility.yul\":3977:3995   */\n      add\n        /* \"#utility.yul\":3970:4018   */\n      mstore\n        /* \"#utility.yul\":4035:4113   */\n      tag_178\n        /* \"#utility.yul\":4108:4112   */\n      dup2\n        /* \"#utility.yul\":4099:4105   */\n      dup6\n        /* \"#utility.yul\":4035:4113   */\n      tag_97\n      jump\t// in\n    tag_178:\n        /* \"#utility.yul\":4027:4113   */\n      swap1\n      pop\n        /* \"#utility.yul\":4123:4195   */\n      tag_179\n        /* \"#utility.yul\":4191:4193   */\n      0x40\n        /* \"#utility.yul\":4180:4189   */\n      dup4\n        /* \"#utility.yul\":4176:4194   */\n      add\n        /* \"#utility.yul\":4167:4173   */\n      dup5\n        /* \"#utility.yul\":4123:4195   */\n      tag_92\n      jump\t// in\n    tag_179:\n        /* \"#utility.yul\":3669:4202   */\n      swap5\n      swap4\n      pop\n      pop\n      pop\n      pop\n      jump\t// out\n        /* \"#utility.yul\":4208:4631   */\n    tag_35:\n        /* \"#utility.yul\":4349:4353   */\n      0x00\n        /* \"#utility.yul\":4387:4389   */\n      0x40\n        /* \"#utility.yul\":4376:4385   */\n      dup3\n        /* \"#utility.yul\":4372:4390   */\n      add\n        /* \"#utility.yul\":4364:4390   */\n      swap1\n      pop\n        /* \"#utility.yul\":4436:4445   */\n      dup2\n        /* \"#utility.yul\":4430:4434   */\n      dup2\n        /* \"#utility.yul\":4426:4446   */\n      sub\n        /* \"#utility.yul\":4422:4423   */\n      0x00\n        /* \"#utility.yul\":4411:4420   */\n      dup4\n        /* \"#utility.yul\":4407:4424   */\n      add\n        /* \"#utility.yul\":4400:4447   */\n      mstore\n        /* \"#utility.yul\":4464:4542   */\n      tag_181\n        /* \"#utility.yul\":4537:4541   */\n      dup2\n        /* \"#utility.yul\":4528:4534   */\n      dup6\n        /* \"#utility.yul\":4464:4542   */\n      tag_97\n      jump\t// in\n    tag_181:\n        /* \"#utility.yul\":4456:4542   */\n      swap1\n      pop\n        /* \"#utility.yul\":4552:4624   */\n      tag_182\n        /* \"#utility.yul\":4620:4622   */\n      0x20\n        /* \"#utility.yul\":4609:4618   */\n      dup4\n        /* \"#utility.yul\":4605:4623   */\n      add\n        /* \"#utility.yul\":4596:4602   */\n      dup5\n        /* \"#utility.yul\":4552:4624   */\n      tag_92\n      jump\t// in\n    tag_182:\n        /* \"#utility.yul\":4208:4631   */\n      swap4\n      swap3\n      pop\n      pop\n      pop\n      jump\t// out\n        /* \"#utility.yul\":4637:4754   */\n    tag_98:\n        /* \"#utility.yul\":4746:4747   */\n      0x00\n        /* \"#utility.yul\":4743:4744   */\n      dup1\n        /* \"#utility.yul\":4736:4748   */\n      revert\n        /* \"#utility.yul\":4760:4877   */\n    tag_99:\n        /* \"#utility.yul\":4869:4870   */\n      0x00\n        /* \"#utility.yul\":4866:4867   */\n      dup1\n        /* \"#utility.yul\":4859:4871   */\n      revert\n        /* \"#utility.yul\":4883:5000   */\n    tag_100:\n        /* \"#utility.yul\":4992:4993   */\n      0x00\n        /* \"#utility.yul\":4989:4990   */\n      dup1\n        /* \"#utility.yul\":4982:4994   */\n      revert\n        /* \"#utility.yul\":5020:5573   */\n    tag_101:\n        /* \"#utility.yul\":5078:5086   */\n      0x00\n        /* \"#utility.yul\":5088:5094   */\n      dup1\n        /* \"#utility.yul\":5138:5141   */\n      dup4\n        /* \"#utility.yul\":5131:5135   */\n      0x1f\n        /* \"#utility.yul\":5123:5129   */\n      dup5\n        /* \"#utility.yul\":5119:5136   */\n      add\n        /* \"#utility.yul\":5115:5142   */\n      slt\n        /* \"#utility.yul\":5105:5227   */\n      tag_187\n      jumpi\n        /* \"#utility.yul\":5146:5225   */\n      tag_188\n      tag_98\n      jump\t// in\n    tag_188:\n        /* \"#utility.yul\":5105:5227   */\n    tag_187:\n        /* \"#utility.yul\":5259:5265   */\n      dup3\n        /* \"#utility.yul\":5246:5266   */\n      calldataload\n        /* \"#utility.yul\":5236:5266   */\n      swap1\n      pop\n        /* \"#utility.yul\":5289:5307   */\n      0xffffffffffffffff\n        /* \"#utility.yul\":5281:5287   */\n      dup2\n        /* \"#utility.yul\":5278:5308   */\n      gt\n        /* \"#utility.yul\":5275:5392   */\n      iszero\n      tag_189\n      jumpi\n        /* \"#utility.yul\":5311:5390   */\n      tag_190\n      tag_99\n      jump\t// in\n    tag_190:\n        /* \"#utility.yul\":5275:5392   */\n    tag_189:\n        /* \"#utility.yul\":5425:5429   */\n      0x20\n        /* \"#utility.yul\":5417:5423   */\n      dup4\n        /* \"#utility.yul\":5413:5430   */\n      add\n        /* \"#utility.yul\":5401:5430   */\n      swap2\n      pop\n        /* \"#utility.yul\":5479:5482   */\n      dup4\n        /* \"#utility.yul\":5471:5475   */\n      0x01\n        /* \"#utility.yul\":5463:5469   */\n      dup3\n        /* \"#utility.yul\":5459:5476   */\n      mul\n        /* \"#utility.yul\":5449:5457   */\n      dup4\n        /* \"#utility.yul\":5445:5477   */\n      add\n        /* \"#utility.yul\":5442:5483   */\n      gt\n        /* \"#utility.yul\":5439:5567   */\n      iszero\n      tag_191\n      jumpi\n        /* \"#utility.yul\":5486:5565   */\n      tag_192\n      tag_100\n      jump\t// in\n    tag_192:\n        /* \"#utility.yul\":5439:5567   */\n    tag_191:\n        /* \"#utility.yul\":5020:5573   */\n      swap3\n      pop\n      swap3\n      swap1\n      pop\n      jump\t// out\n        /* \"#utility.yul\":5579:6108   */\n    tag_41:\n        /* \"#utility.yul\":5650:5656   */\n      0x00\n        /* \"#utility.yul\":5658:5664   */\n      dup1\n        /* \"#utility.yul\":5707:5709   */\n      0x20\n        /* \"#utility.yul\":5695:5704   */\n      dup4\n        /* \"#utility.yul\":5686:5693   */\n      dup6\n        /* \"#utility.yul\":5682:5705   */\n      sub\n        /* \"#utility.yul\":5678:5710   */\n      slt\n        /* \"#utility.yul\":5675:5794   */\n      iszero\n      tag_194\n      jumpi\n        /* \"#utility.yul\":5713:5792   */\n      tag_195\n      tag_81\n      jump\t// in\n    tag_195:\n        /* \"#utility.yul\":5675:5794   */\n    tag_194:\n        /* \"#utility.yul\":5861:5862   */\n      0x00\n        /* \"#utility.yul\":5850:5859   */\n      dup4\n        /* \"#utility.yul\":5846:5863   */\n      add\n        /* \"#utility.yul\":5833:5864   */\n      calldataload\n        /* \"#utility.yul\":5891:5909   */\n      0xffffffffffffffff\n        /* \"#utility.yul\":5883:5889   */\n      dup2\n        /* \"#utility.yul\":5880:5910   */\n      gt\n        /* \"#utility.yul\":5877:5994   */\n      iszero\n      tag_196\n      jumpi\n        /* \"#utility.yul\":5913:5992   */\n      tag_197\n      tag_82\n      jump\t// in\n    tag_197:\n        /* \"#utility.yul\":5877:5994   */\n    tag_196:\n        /* \"#utility.yul\":6026:6091   */\n      tag_198\n        /* \"#utility.yul\":6083:6090   */\n      dup6\n        /* \"#utility.yul\":6074:6080   */\n      dup3\n        /* \"#utility.yul\":6063:6072   */\n      dup7\n        /* \"#utility.yul\":6059:6081   */\n      add\n        /* \"#utility.yul\":6026:6091   */\n      tag_101\n      jump\t// in\n    tag_198:\n        /* \"#utility.yul\":6008:6091   */\n      swap3\n      pop\n      swap3\n      pop\n        /* \"#utility.yul\":5804:6101   */\n      pop\n        /* \"#utility.yul\":5579:6108   */\n      swap3\n      pop\n      swap3\n      swap1\n      pop\n      jump\t// out\n        /* \"#utility.yul\":6114:6232   */\n    tag_102:\n        /* \"#utility.yul\":6201:6225   */\n      tag_200\n        /* \"#utility.yul\":6219:6224   */\n      dup2\n        /* \"#utility.yul\":6201:6225   */\n      tag_87\n      jump\t// in\n    tag_200:\n        /* \"#utility.yul\":6196:6199   */\n      dup3\n        /* \"#utility.yul\":6189:6226   */\n      mstore\n        /* \"#utility.yul\":6114:6232   */\n      pop\n      pop\n      jump\t// out\n        /* \"#utility.yul\":6238:6460   */\n    tag_46:\n        /* \"#utility.yul\":6331:6335   */\n      0x00\n        /* \"#utility.yul\":6369:6371   */\n      0x20\n        /* \"#utility.yul\":6358:6367   */\n      dup3\n        /* \"#utility.yul\":6354:6372   */\n      add\n        /* \"#utility.yul\":6346:6372   */\n      swap1\n      pop\n        /* \"#utility.yul\":6382:6453   */\n      tag_202\n        /* \"#utility.yul\":6450:6451   */\n      0x00\n        /* \"#utility.yul\":6439:6448   */\n      dup4\n        /* \"#utility.yul\":6435:6452   */\n      add\n        /* \"#utility.yul\":6426:6432   */\n      dup5\n        /* \"#utility.yul\":6382:6453   */\n      tag_102\n      jump\t// in\n    tag_202:\n        /* \"#utility.yul\":6238:6460   */\n      swap3\n      swap2\n      pop\n      pop\n      jump\t// out\n        /* \"#utility.yul\":6466:6638   */\n    tag_103:\n        /* \"#utility.yul\":6606:6630   */\n      0x596f75206861766520616c726561647920766f74656400000000000000000000\n        /* \"#utility.yul\":6602:6603   */\n      0x00\n        /* \"#utility.yul\":6594:6600   */\n      dup3\n        /* \"#utility.yul\":6590:6604   */\n      add\n        /* \"#utility.yul\":6583:6631   */\n      mstore\n        /* \"#utility.yul\":6466:6638   */\n      pop\n      jump\t// out\n        /* \"#utility.yul\":6644:7010   */\n    tag_104:\n        /* \"#utility.yul\":6786:6789   */\n      0x00\n        /* \"#utility.yul\":6807:6874   */\n      tag_205\n        /* \"#utility.yul\":6871:6873   */\n      0x16\n        /* \"#utility.yul\":6866:6869   */\n      dup4\n        /* \"#utility.yul\":6807:6874   */\n      tag_94\n      jump\t// in\n    tag_205:\n        /* \"#utility.yul\":6800:6874   */\n      swap2\n      pop\n        /* \"#utility.yul\":6883:6976   */\n      tag_206\n        /* \"#utility.yul\":6972:6975   */\n      dup3\n        /* \"#utility.yul\":6883:6976   */\n      tag_103\n      jump\t// in\n    tag_206:\n        /* \"#utility.yul\":7001:7003   */\n      0x20\n        /* \"#utility.yul\":6996:6999   */\n      dup3\n        /* \"#utility.yul\":6992:7004   */\n      add\n        /* \"#utility.yul\":6985:7004   */\n      swap1\n      pop\n        /* \"#utility.yul\":6644:7010   */\n      swap2\n      swap1\n      pop\n      jump\t// out\n        /* \"#utility.yul\":7016:7435   */\n    tag_50:\n        /* \"#utility.yul\":7182:7186   */\n      0x00\n        /* \"#utility.yul\":7220:7222   */\n      0x20\n        /* \"#utility.yul\":7209:7218   */\n      dup3\n        /* \"#utility.yul\":7205:7223   */\n      add\n        /* \"#utility.yul\":7197:7223   */\n      swap1\n      pop\n        /* \"#utility.yul\":7269:7278   */\n      dup2\n        /* \"#utility.yul\":7263:7267   */\n      dup2\n        /* \"#utility.yul\":7259:7279   */\n      sub\n        /* \"#utility.yul\":7255:7256   */\n      0x00\n        /* \"#utility.yul\":7244:7253   */\n      dup4\n        /* \"#utility.yul\":7240:7257   */\n      add\n        /* \"#utility.yul\":7233:7280   */\n      mstore\n        /* \"#utility.yul\":7297:7428   */\n      tag_208\n        /* \"#utility.yul\":7423:7427   */\n      dup2\n        /* \"#utility.yul\":7297:7428   */\n      tag_104\n      jump\t// in\n    tag_208:\n        /* \"#utility.yul\":7289:7428   */\n      swap1\n      pop\n        /* \"#utility.yul\":7016:7435   */\n      swap2\n      swap1\n      pop\n      jump\t// out\n        /* \"#utility.yul\":7441:7611   */\n    tag_105:\n        /* \"#utility.yul\":7581:7603   */\n      0x496e76616c69642063616e646964617465204944000000000000000000000000\n        /* \"#utility.yul\":7577:7578   */\n      0x00\n        /* \"#utility.yul\":7569:7575   */\n      dup3\n        /* \"#utility.yul\":7565:7579   */\n      add\n        /* \"#utility.yul\":7558:7604   */\n      mstore\n        /* \"#utility.yul\":7441:7611   */\n      pop\n      jump\t// out\n        /* \"#utility.yul\":7617:7983   */\n    tag_106:\n        /* \"#utility.yul\":7759:7762   */\n      0x00\n        /* \"#utility.yul\":7780:7847   */\n      tag_211\n        /* \"#utility.yul\":7844:7846   */\n      0x14\n        /* \"#utility.yul\":7839:7842   */\n      dup4\n        /* \"#utility.yul\":7780:7847   */\n      tag_94\n      jump\t// in\n    tag_211:\n        /* \"#utility.yul\":7773:7847   */\n      swap2\n      pop\n        /* \"#utility.yul\":7856:7949   */\n      tag_212\n        /* \"#utility.yul\":7945:7948   */\n      dup3\n        /* \"#utility.yul\":7856:7949   */\n      tag_105\n      jump\t// in\n    tag_212:\n        /* \"#utility.yul\":7974:7976   */\n      0x20\n        /* \"#utility.yul\":7969:7972   */\n      dup3\n        /* \"#utility.yul\":7965:7977   */\n      add\n        /* \"#utility.yul\":7958:7977   */\n      swap1\n      pop\n        /* \"#utility.yul\":7617:7983   */\n      swap2\n      swap1\n      pop\n      jump\t// out\n        /* \"#utility.yul\":7989:8408   */\n    tag_53:\n        /* \"#utility.yul\":8155:8159   */\n      0x00\n        /* \"#utility.yul\":8193:8195   */\n      0x20\n        /* \"#utility.yul\":8182:8191   */\n      dup3\n        /* \"#utility.yul\":8178:8196   */\n      add\n        /* \"#utility.yul\":8170:8196   */\n      swap1\n      pop\n        /* \"#utility.yul\":8242:8251   */\n      dup2\n        /* \"#utility.yul\":8236:8240   */\n      dup2\n        /* \"#utility.yul\":8232:8252   */\n      sub\n        /* \"#utility.yul\":8228:8229   */\n      0x00\n        /* \"#utility.yul\":8217:8226   */\n      dup4\n        /* \"#utility.yul\":8213:8230   */\n      add\n        /* \"#utility.yul\":8206:8253   */\n      mstore\n        /* \"#utility.yul\":8270:8401   */\n      tag_214\n        /* \"#utility.yul\":8396:8400   */\n      dup2\n        /* \"#utility.yul\":8270:8401   */\n      tag_106\n      jump\t// in\n    tag_214:\n        /* \"#utility.yul\":8262:8401   */\n      swap1\n      pop\n        /* \"#utility.yul\":7989:8408   */\n      swap2\n      swap1\n      pop\n      jump\t// out\n        /* \"#utility.yul\":8414:8594   */\n    tag_107:\n        /* \"#utility.yul\":8462:8539   */\n      0x4e487b7100000000000000000000000000000000000000000000000000000000\n        /* \"#utility.yul\":8459:8460   */\n      0x00\n        /* \"#utility.yul\":8452:8540   */\n      mstore\n        /* \"#utility.yul\":8559:8563   */\n      0x11\n        /* \"#utility.yul\":8556:8557   */\n      0x04\n        /* \"#utility.yul\":8549:8564   */\n      mstore\n        /* \"#utility.yul\":8583:8587   */\n      0x24\n        /* \"#utility.yul\":8580:8581   */\n      0x00\n        /* \"#utility.yul\":8573:8588   */\n      revert\n        /* \"#utility.yul\":8600:8833   */\n    tag_55:\n        /* \"#utility.yul\":8639:8642   */\n      0x00\n        /* \"#utility.yul\":8662:8686   */\n      tag_217\n        /* \"#utility.yul\":8680:8685   */\n      dup3\n        /* \"#utility.yul\":8662:8686   */\n      tag_83\n      jump\t// in\n    tag_217:\n        /* \"#utility.yul\":8653:8686   */\n      swap2\n      pop\n        /* \"#utility.yul\":8708:8774   */\n      0xffffffffffffffffffffffffffffffffffffffffffffffffffffffffffffffff\n        /* \"#utility.yul\":8701:8706   */\n      dup3\n        /* \"#utility.yul\":8698:8775   */\n      sub\n        /* \"#utility.yul\":8695:8798   */\n      tag_218\n      jumpi\n        /* \"#utility.yul\":8778:8796   */\n      tag_219\n      tag_107\n      jump\t// in\n    tag_219:\n        /* \"#utility.yul\":8695:8798   */\n    tag_218:\n        /* \"#utility.yul\":8825:8826   */\n      0x01\n        /* \"#utility.yul\":8818:8823   */\n      dup3\n        /* \"#utility.yul\":8814:8827   */\n      add\n        /* \"#utility.yul\":8807:8827   */\n      swap1\n      pop\n        /* \"#utility.yul\":8600:8833   */\n      swap2\n      swap1\n      pop\n      jump\t// out\n        /* \"#utility.yul\":8839:9019   */\n    tag_108:\n        /* \"#utility.yul\":8887:8964   */\n      0x4e487b7100000000000000000000000000000000000000000000000000000000\n        /* \"#utility.yul\":8884:8885   */\n      0x00\n        /* \"#utility.yul\":8877:8965   */\n      mstore\n        /* \"#utility.yul\":8984:8988   */\n      0x22\n        /* \"#utility.yul\":8981:8982   */\n      0x04\n        /* \"#utility.yul\":8974:8989   */\n      mstore\n        /* \"#utility.yul\":9008:9012   */\n      0x24\n        /* \"#utility.yul\":9005:9006   */\n      0x00\n        /* \"#utility.yul\":8998:9013   */\n      revert\n        /* \"#utility.yul\":9025:9345   */\n    tag_58:\n        /* \"#utility.yul\":9069:9075   */\n      0x00\n        /* \"#utility.yul\":9106:9107   */\n      0x02\n        /* \"#utility.yul\":9100:9104   */\n      dup3\n        /* \"#utility.yul\":9096:9108   */\n      div\n        /* \"#utility.yul\":9086:9108   */\n      swap1\n      pop\n        /* \"#utility.yul\":9153:9154   */\n      0x01\n        /* \"#utility.yul\":9147:9151   */\n      dup3\n        /* \"#utility.yul\":9143:9155   */\n      and\n        /* \"#utility.yul\":9174:9192   */\n      dup1\n        /* \"#utility.yul\":9164:9245   */\n      tag_222\n      jumpi\n        /* \"#utility.yul\":9230:9234   */\n      0x7f\n        /* \"#utility.yul\":9222:9228   */\n      dup3\n        /* \"#utility.yul\":9218:9235   */\n      and\n        /* \"#utility.yul\":9208:9235   */\n      swap2\n      pop\n        /* \"#utility.yul\":9164:9245   */\n    tag_222:\n        /* \"#utility.yul\":9292:9294   */\n      0x20\n        /* \"#utility.yul\":9284:9290   */\n      dup3\n        /* \"#utility.yul\":9281:9295   */\n      lt\n        /* \"#utility.yul\":9261:9279   */\n      dup2\n        /* \"#utility.yul\":9258:9296   */\n      sub\n        /* \"#utility.yul\":9255:9339   */\n      tag_223\n      jumpi\n        /* \"#utility.yul\":9311:9329   */\n      tag_224\n      tag_108\n      jump\t// in\n    tag_224:\n        /* \"#utility.yul\":9255:9339   */\n    tag_223:\n        /* \"#utility.yul\":9076:9345   */\n      pop\n        /* \"#utility.yul\":9025:9345   */\n      swap2\n      swap1\n      pop\n      jump\t// out\n        /* \"#utility.yul\":9351:9525   */\n    tag_109:\n        /* \"#utility.yul\":9491:9517   */\n      0x43616e64696461746520646f6573206e6f742065786973740000000000000000\n        /* \"#utility.yul\":9487:9488   */\n      0x00\n        /* \"#utility.yul\":9479:9485   */\n      dup3\n        /* \"#utility.yul\":9475:9489   */\n      add\n        /* \"#utility.yul\":9468:9518   */\n      mstore\n        /* \"#utility.yul\":9351:9525   */\n      pop\n      jump\t// out\n        /* \"#utility.yul\":9531:9897   */\n    tag_110:\n        /* \"#utility.yul\":9673:9676   */\n      0x00\n        /* \"#utility.yul\":9694:9761   */\n      tag_227\n        /* \"#utility.yul\":9758:9760   */\n      0x18\n        /* \"#utility.yul\":9753:9756   */\n      dup4\n        /* \"#utility.yul\":9694:9761   */\n      tag_94\n      jump\t// in\n    tag_227:\n        /* \"#utility.yul\":9687:9761   */\n      swap2\n      pop\n        /* \"#utility.yul\":9770:9863   */\n      tag_228\n        /* \"#utility.yul\":9859:9862   */\n      dup3\n        /* \"#utility.yul\":9770:9863   */\n      tag_109\n      jump\t// in\n    tag_228:\n        /* \"#utility.yul\":9888:9890   */\n      0x20\n        /* \"#utility.yul\":9883:9886   */\n      dup3\n        /* \"#utility.yul\":9879:9891   */\n      add\n        /* \"#utility.yul\":9872:9891   */\n      swap1\n      pop\n        /* \"#utility.yul\":9531:9897   */\n      swap2\n      swap1\n      pop\n      jump\t// out\n        /* \"#utility.yul\":9903:10322   */\n    tag_66:\n        /* \"#utility.yul\":10069:10073   */\n      0x00\n        /* \"#utility.yul\":10107:10109   */\n      0x20\n        /* \"#utility.yul\":10096:10105   */\n      dup3\n        /* \"#utility.yul\":10092:10110   */\n      add\n        /* \"#utility.yul\":10084:10110   */\n      swap1\n      pop\n        /* \"#utility.yul\":10156:10165   */\n      dup2\n        /* \"#utility.yul\":10150:10154   */\n      dup2\n        /* \"#utility.yul\":10146:10166   */\n      sub\n        /* \"#utility.yul\":10142:10143   */\n      0x00\n        /* \"#utility.yul\":10131:10140   */\n      dup4\n        /* \"#utility.yul\":10127:10144   */\n      add\n        /* \"#utility.yul\":10120:10167   */\n      mstore\n        /* \"#utility.yul\":10184:10315   */\n      tag_230\n        /* \"#utility.yul\":10310:10314   */\n      dup2\n        /* \"#utility.yul\":10184:10315   */\n      tag_110\n      jump\t// in\n    tag_230:\n        /* \"#utility.yul\":10176:10315   */\n      swap1\n      pop\n        /* \"#utility.yul\":9903:10322   */\n      swap2\n      swap1\n      pop\n      jump\t// out\n        /* \"#utility.yul\":10328:10558   */\n    tag_111:\n        /* \"#utility.yul\":10468:10502   */\n      0x4f6e6c7920636f6e7472616374206f776e65722063616e20706572666f726d20\n        /* \"#utility.yul\":10464:10465   */\n      0x00\n        /* \"#utility.yul\":10456:10462   */\n      dup3\n        /* \"#utility.yul\":10452:10466   */\n      add\n        /* \"#utility.yul\":10445:10503   */\n      mstore\n        /* \"#utility.yul\":10537:10550   */\n      0x7468697320616374696f6e000000000000000000000000000000000000000000\n        /* \"#utility.yul\":10532:10534   */\n      0x20\n        /* \"#utility.yul\":10524:10530   */\n      dup3\n        /* \"#utility.yul\":10520:10535   */\n      add\n        /* \"#utility.yul\":10513:10551   */\n      mstore\n        /* \"#utility.yul\":10328:10558   */\n      pop\n      jump\t// out\n        /* \"#utility.yul\":10564:10930   */\n    tag_112:\n        /* \"#utility.yul\":10706:10709   */\n      0x00\n        /* \"#utility.yul\":10727:10794   */\n      tag_233\n        /* \"#utility.yul\":10791:10793   */\n      0x2b\n        /* \"#utility.yul\":10786:10789   */\n      dup4\n        /* \"#utility.yul\":10727:10794   */\n      tag_94\n      jump\t// in\n    tag_233:\n        /* \"#utility.yul\":10720:10794   */\n      swap2\n      pop\n        /* \"#utility.yul\":10803:10896   */\n      tag_234\n        /* \"#utility.yul\":10892:10895   */\n      dup3\n        /* \"#utility.yul\":10803:10896   */\n      tag_111\n      jump\t// in\n    tag_234:\n        /* \"#utility.yul\":10921:10923   */\n      0x40\n        /* \"#utility.yul\":10916:10919   */\n      dup3\n        /* \"#utility.yul\":10912:10924   */\n      add\n        /* \"#utility.yul\":10905:10924   */\n      swap1\n      pop\n        /* \"#utility.yul\":10564:10930   */\n      swap2\n      swap1\n      pop\n      jump\t// out\n        /* \"#utility.yul\":10936:11355   */\n    tag_75:\n        /* \"#utility.yul\":11102:11106   */\n      0x00\n        /* \"#utility.yul\":11140:11142   */\n      0x20\n        /* \"#utility.yul\":11129:11138   */\n      dup3\n        /* \"#utility.yul\":11125:11143   */\n      add\n        /* \"#utility.yul\":11117:11143   */\n      swap1\n      pop\n        /* \"#utility.yul\":11189:11198   */\n      dup2\n        /* \"#utility.yul\":11183:11187   */\n      dup2\n        /* \"#utility.yul\":11179:11199   */\n      sub\n        /* \"#utility.yul\":11175:11176   */\n      0x00\n        /* \"#utility.yul\":11164:11173   */\n      dup4\n        /* \"#utility.yul\":11160:11177   */\n      add\n        /* \"#utility.yul\":11153:11200   */\n      mstore\n        /* \"#utility.yul\":11217:11348   */\n      tag_236\n        /* \"#utility.yul\":11343:11347   */\n      dup2\n        /* \"#utility.yul\":11217:11348   */\n      tag_112\n      jump\t// in\n    tag_236:\n        /* \"#utility.yul\":11209:11348   */\n      swap1\n      pop\n        /* \"#utility.yul\":10936:11355   */\n      swap2\n      swap1\n      pop\n      jump\t// out\n        /* \"#utility.yul\":11361:11541   */\n    tag_113:\n        /* \"#utility.yul\":11409:11486   */\n      0x4e487b7100000000000000000000000000000000000000000000000000000000\n        /* \"#utility.yul\":11406:11407   */\n      0x00\n        /* \"#utility.yul\":11399:11487   */\n      mstore\n        /* \"#utility.yul\":11506:11510   */\n      0x41\n        /* \"#utility.yul\":11503:11504   */\n      0x04\n        /* \"#utility.yul\":11496:11511   */\n      mstore\n        /* \"#utility.yul\":11530:11534   */\n      0x24\n        /* \"#utility.yul\":11527:11528   */\n      0x00\n        /* \"#utility.yul\":11520:11535   */\n      revert\n        /* \"#utility.yul\":11547:11688   */\n    tag_114:\n        /* \"#utility.yul\":11596:11600   */\n      0x00\n        /* \"#utility.yul\":11619:11622   */\n      dup2\n        /* \"#utility.yul\":11611:11622   */\n      swap1\n      pop\n        /* \"#utility.yul\":11642:11645   */\n      dup2\n        /* \"#utility.yul\":11639:11640   */\n      0x00\n        /* \"#utility.yul\":11632:11646   */\n      mstore\n        /* \"#utility.yul\":11676:11680   */\n      0x20\n        /* \"#utility.yul\":11673:11674   */\n      0x00\n        /* \"#utility.yul\":11663:11681   */\n      keccak256\n        /* \"#utility.yul\":11655:11681   */\n      swap1\n      pop\n        /* \"#utility.yul\":11547:11688   */\n      swap2\n      swap1\n      pop\n      jump\t// out\n        /* \"#utility.yul\":11694:11787   */\n    tag_115:\n        /* \"#utility.yul\":11731:11737   */\n      0x00\n        /* \"#utility.yul\":11778:11780   */\n      0x20\n        /* \"#utility.yul\":11773:11775   */\n      0x1f\n        /* \"#utility.yul\":11766:11771   */\n      dup4\n        /* \"#utility.yul\":11762:11776   */\n      add\n        /* \"#utility.yul\":11758:11781   */\n      div\n        /* \"#utility.yul\":11748:11781   */\n      swap1\n      pop\n        /* \"#utility.yul\":11694:11787   */\n      swap2\n      swap1\n      pop\n      jump\t// out\n        /* \"#utility.yul\":11793:11900   */\n    tag_116:\n        /* \"#utility.yul\":11837:11845   */\n      0x00\n        /* \"#utility.yul\":11887:11892   */\n      dup3\n        /* \"#utility.yul\":11881:11885   */\n      dup3\n        /* \"#utility.yul\":11877:11893   */\n      shl\n        /* \"#utility.yul\":11856:11893   */\n      swap1\n      pop\n        /* \"#utility.yul\":11793:11900   */\n      swap3\n      swap2\n      pop\n      pop\n      jump\t// out\n        /* \"#utility.yul\":11906:12299   */\n    tag_117:\n        /* \"#utility.yul\":11975:11981   */\n      0x00\n        /* \"#utility.yul\":12025:12026   */\n      0x08\n        /* \"#utility.yul\":12013:12023   */\n      dup4\n        /* \"#utility.yul\":12009:12027   */\n      mul\n        /* \"#utility.yul\":12048:12145   */\n      tag_242\n        /* \"#utility.yul\":12078:12144   */\n      0xffffffffffffffffffffffffffffffffffffffffffffffffffffffffffffffff\n        /* \"#utility.yul\":12067:12076   */\n      dup3\n        /* \"#utility.yul\":12048:12145   */\n      tag_116\n      jump\t// in\n    tag_242:\n        /* \"#utility.yul\":12166:12205   */\n      tag_243\n        /* \"#utility.yul\":12196:12204   */\n      dup7\n        /* \"#utility.yul\":12185:12194   */\n      dup4\n        /* \"#utility.yul\":12166:12205   */\n      tag_116\n      jump\t// in\n    tag_243:\n        /* \"#utility.yul\":12154:12205   */\n      swap6\n      pop\n        /* \"#utility.yul\":12238:12242   */\n      dup1\n        /* \"#utility.yul\":12234:12243   */\n      not\n        /* \"#utility.yul\":12227:12232   */\n      dup5\n        /* \"#utility.yul\":12223:12244   */\n      and\n        /* \"#utility.yul\":12214:12244   */\n      swap4\n      pop\n        /* \"#utility.yul\":12287:12291   */\n      dup1\n        /* \"#utility.yul\":12277:12285   */\n      dup7\n        /* \"#utility.yul\":12273:12292   */\n      and\n        /* \"#utility.yul\":12266:12271   */\n      dup5\n        /* \"#utility.yul\":12263:12293   */\n      or\n        /* \"#utility.yul\":12253:12293   */\n      swap3\n      pop\n        /* \"#utility.yul\":11982:12299   */\n      pop\n      pop\n        /* \"#utility.yul\":11906:12299   */\n      swap4\n      swap3\n      pop\n      pop\n      pop\n      jump\t// out\n        /* \"#utility.yul\":12305:12365   */\n    tag_118:\n        /* \"#utility.yul\":12333:12336   */\n      0x00\n        /* \"#utility.yul\":12354:12359   */\n      dup2\n        /* \"#utility.yul\":12347:12359   */\n      swap1\n      pop\n        /* \"#utility.yul\":12305:12365   */\n      swap2\n      swap1\n      pop\n      jump\t// out\n        /* \"#utility.yul\":12371:12513   */\n    tag_119:\n        /* \"#utility.yul\":12421:12430   */\n      0x00\n        /* \"#utility.yul\":12454:12507   */\n      tag_246\n        /* \"#utility.yul\":12472:12506   */\n      tag_247\n        /* \"#utility.yul\":12481:12505   */\n      tag_248\n        /* \"#utility.yul\":12499:12504   */\n      dup5\n        /* \"#utility.yul\":12481:12505   */\n      tag_83\n      jump\t// in\n    tag_248:\n        /* \"#utility.yul\":12472:12506   */\n      tag_118\n      jump\t// in\n    tag_247:\n        /* \"#utility.yul\":12454:12507   */\n      tag_83\n      jump\t// in\n    tag_246:\n        /* \"#utility.yul\":12441:12507   */\n      swap1\n      pop\n        /* \"#utility.yul\":12371:12513   */\n      swap2\n      swap1\n      pop\n      jump\t// out\n        /* \"#utility.yul\":12519:12594   */\n    tag_120:\n        /* \"#utility.yul\":12562:12565   */\n      0x00\n        /* \"#utility.yul\":12583:12588   */\n      dup2\n        /* \"#utility.yul\":12576:12588   */\n      swap1\n      pop\n        /* \"#utility.yul\":12519:12594   */\n      swap2\n      swap1\n      pop\n      jump\t// out\n        /* \"#utility.yul\":12600:12869   */\n    tag_121:\n        /* \"#utility.yul\":12710:12749   */\n      tag_251\n        /* \"#utility.yul\":12741:12748   */\n      dup4\n        /* \"#utility.yul\":12710:12749   */\n      tag_119\n      jump\t// in\n    tag_251:\n        /* \"#utility.yul\":12771:12862   */\n      tag_252\n        /* \"#utility.yul\":12820:12861   */\n      tag_253\n        /* \"#utility.yul\":12844:12860   */\n      dup3\n        /* \"#utility.yul\":12820:12861   */\n      tag_120\n      jump\t// in\n    tag_253:\n        /* \"#utility.yul\":12812:12818   */\n      dup5\n        /* \"#utility.yul\":12805:12809   */\n      dup5\n        /* \"#utility.yul\":12799:12810   */\n      sload\n        /* \"#utility.yul\":12771:12862   */\n      tag_117\n      jump\t// in\n    tag_252:\n        /* \"#utility.yul\":12765:12769   */\n      dup3\n        /* \"#utility.yul\":12758:12863   */\n      sstore\n        /* \"#utility.yul\":12676:12869   */\n      pop\n        /* \"#utility.yul\":12600:12869   */\n      pop\n      pop\n      pop\n      jump\t// out\n        /* \"#utility.yul\":12875:12948   */\n    tag_122:\n        /* \"#utility.yul\":12920:12923   */\n      0x00\n        /* \"#utility.yul\":12875:12948   */\n      swap1\n      jump\t// out\n        /* \"#utility.yul\":12954:13143   */\n    tag_123:\n        /* \"#utility.yul\":13031:13063   */\n      tag_256\n      tag_122\n      jump\t// in\n    tag_256:\n        /* \"#utility.yul\":13072:13137   */\n      tag_257\n        /* \"#utility.yul\":13130:13136   */\n      dup2\n        /* \"#utility.yul\":13122:13128   */\n      dup5\n        /* \"#utility.yul\":13116:13120   */\n      dup5\n        /* \"#utility.yul\":13072:13137   */\n      tag_121\n      jump\t// in\n    tag_257:\n        /* \"#utility.yul\":13007:13143   */\n      pop\n        /* \"#utility.yul\":12954:13143   */\n      pop\n      pop\n      jump\t// out\n        /* \"#utility.yul\":13149:13335   */\n    tag_124:\n        /* \"#utility.yul\":13209:13329   */\n    tag_259:\n        /* \"#utility.yul\":13226:13229   */\n      dup2\n        /* \"#utility.yul\":13219:13224   */\n      dup2\n        /* \"#utility.yul\":13216:13230   */\n      lt\n        /* \"#utility.yul\":13209:13329   */\n      iszero\n      tag_261\n      jumpi\n        /* \"#utility.yul\":13280:13319   */\n      tag_262\n        /* \"#utility.yul\":13317:13318   */\n      0x00\n        /* \"#utility.yul\":13310:13315   */\n      dup3\n        /* \"#utility.yul\":13280:13319   */\n      tag_123\n      jump\t// in\n    tag_262:\n        /* \"#utility.yul\":13253:13254   */\n      0x01\n        /* \"#utility.yul\":13246:13251   */\n      dup2\n        /* \"#utility.yul\":13242:13255   */\n      add\n        /* \"#utility.yul\":13233:13255   */\n      swap1\n      pop\n        /* \"#utility.yul\":13209:13329   */\n      jump(tag_259)\n    tag_261:\n        /* \"#utility.yul\":13149:13335   */\n      pop\n      pop\n      jump\t// out\n        /* \"#utility.yul\":13341:13884   */\n    tag_125:\n        /* \"#utility.yul\":13442:13444   */\n      0x1f\n        /* \"#utility.yul\":13437:13440   */\n      dup3\n        /* \"#utility.yul\":13434:13445   */\n      gt\n        /* \"#utility.yul\":13431:13877   */\n      iszero\n      tag_264\n      jumpi\n        /* \"#utility.yul\":13476:13514   */\n      tag_265\n        /* \"#utility.yul\":13508:13513   */\n      dup2\n        /* \"#utility.yul\":13476:13514   */\n      tag_114\n      jump\t// in\n    tag_265:\n        /* \"#utility.yul\":13560:13589   */\n      tag_266\n        /* \"#utility.yul\":13578:13588   */\n      dup5\n        /* \"#utility.yul\":13560:13589   */\n      tag_115\n      jump\t// in\n    tag_266:\n        /* \"#utility.yul\":13550:13558   */\n      dup2\n        /* \"#utility.yul\":13546:13590   */\n      add\n        /* \"#utility.yul\":13743:13745   */\n      0x20\n        /* \"#utility.yul\":13731:13741   */\n      dup6\n        /* \"#utility.yul\":13728:13746   */\n      lt\n        /* \"#utility.yul\":13725:13774   */\n      iszero\n      tag_267\n      jumpi\n        /* \"#utility.yul\":13764:13772   */\n      dup2\n        /* \"#utility.yul\":13749:13772   */\n      swap1\n      pop\n        /* \"#utility.yul\":13725:13774   */\n    tag_267:\n        /* \"#utility.yul\":13787:13867   */\n      tag_268\n        /* \"#utility.yul\":13843:13865   */\n      tag_269\n        /* \"#utility.yul\":13861:13864   */\n      dup6\n        /* \"#utility.yul\":13843:13865   */\n      tag_115\n      jump\t// in\n    tag_269:\n        /* \"#utility.yul\":13833:13841   */\n      dup4\n        /* \"#utility.yul\":13829:13866   */\n      add\n        /* \"#utility.yul\":13816:13827   */\n      dup3\n        /* \"#utility.yul\":13787:13867   */\n      tag_124\n      jump\t// in\n    tag_268:\n        /* \"#utility.yul\":13446:13877   */\n      pop\n      pop\n        /* \"#utility.yul\":13431:13877   */\n    tag_264:\n        /* \"#utility.yul\":13341:13884   */\n      pop\n      pop\n      pop\n      jump\t// out\n        /* \"#utility.yul\":13890:14007   */\n    tag_126:\n        /* \"#utility.yul\":13944:13952   */\n      0x00\n        /* \"#utility.yul\":13994:13999   */\n      dup3\n        /* \"#utility.yul\":13988:13992   */\n      dup3\n        /* \"#utility.yul\":13984:14000   */\n      shr\n        /* \"#utility.yul\":13963:14000   */\n      swap1\n      pop\n        /* \"#utility.yul\":13890:14007   */\n      swap3\n      swap2\n      pop\n      pop\n      jump\t// out\n        /* \"#utility.yul\":14013:14182   */\n    tag_127:\n        /* \"#utility.yul\":14057:14063   */\n      0x00\n        /* \"#utility.yul\":14090:14141   */\n      tag_272\n        /* \"#utility.yul\":14138:14139   */\n      0x00\n        /* \"#utility.yul\":14134:14140   */\n      not\n        /* \"#utility.yul\":14126:14131   */\n      dup5\n        /* \"#utility.yul\":14123:14124   */\n      0x08\n        /* \"#utility.yul\":14119:14132   */\n      mul\n        /* \"#utility.yul\":14090:14141   */\n      tag_126\n      jump\t// in\n    tag_272:\n        /* \"#utility.yul\":14086:14142   */\n      not\n        /* \"#utility.yul\":14171:14175   */\n      dup1\n        /* \"#utility.yul\":14165:14169   */\n      dup4\n        /* \"#utility.yul\":14161:14176   */\n      and\n        /* \"#utility.yul\":14151:14176   */\n      swap2\n      pop\n        /* \"#utility.yul\":14064:14182   */\n      pop\n        /* \"#utility.yul\":14013:14182   */\n      swap3\n      swap2\n      pop\n      pop\n      jump\t// out\n        /* \"#utility.yul\":14187:14482   */\n    tag_128:\n        /* \"#utility.yul\":14263:14267   */\n      0x00\n        /* \"#utility.yul\":14409:14438   */\n      tag_274\n        /* \"#utility.yul\":14434:14437   */\n      dup4\n        /* \"#utility.yul\":14428:14432   */\n      dup4\n        /* \"#utility.yul\":14409:14438   */\n      tag_127\n      jump\t// in\n    tag_274:\n        /* \"#utility.yul\":14401:14438   */\n      swap2\n      pop\n        /* \"#utility.yul\":14471:14474   */\n      dup3\n        /* \"#utility.yul\":14468:14469   */\n      0x02\n        /* \"#utility.yul\":14464:14475   */\n      mul\n        /* \"#utility.yul\":14458:14462   */\n      dup3\n        /* \"#utility.yul\":14455:14476   */\n      or\n        /* \"#utility.yul\":14447:14476   */\n      swap1\n      pop\n        /* \"#utility.yul\":14187:14482   */\n      swap3\n      swap2\n      pop\n      pop\n      jump\t// out\n        /* \"#utility.yul\":14487:15882   */\n    tag_78:\n        /* \"#utility.yul\":14604:14641   */\n      tag_276\n        /* \"#utility.yul\":14637:14640   */\n      dup3\n        /* \"#utility.yul\":14604:14641   */\n      tag_93\n      jump\t// in\n    tag_276:\n        /* \"#utility.yul\":14706:14724   */\n      0xffffffffffffffff\n        /* \"#utility.yul\":14698:14704   */\n      dup2\n        /* \"#utility.yul\":14695:14725   */\n      gt\n        /* \"#utility.yul\":14692:14748   */\n      iszero\n      tag_277\n      jumpi\n        /* \"#utility.yul\":14728:14746   */\n      tag_278\n      tag_113\n      jump\t// in\n    tag_278:\n        /* \"#utility.yul\":14692:14748   */\n    tag_277:\n        /* \"#utility.yul\":14772:14810   */\n      tag_279\n        /* \"#utility.yul\":14804:14808   */\n      dup3\n        /* \"#utility.yul\":14798:14809   */\n      sload\n        /* \"#utility.yul\":14772:14810   */\n      tag_58\n      jump\t// in\n    tag_279:\n        /* \"#utility.yul\":14857:14924   */\n      tag_280\n        /* \"#utility.yul\":14917:14923   */\n      dup3\n        /* \"#utility.yul\":14909:14915   */\n      dup3\n        /* \"#utility.yul\":14903:14907   */\n      dup6\n        /* \"#utility.yul\":14857:14924   */\n      tag_125\n      jump\t// in\n    tag_280:\n        /* \"#utility.yul\":14951:14952   */\n      0x00\n        /* \"#utility.yul\":14975:14979   */\n      0x20\n        /* \"#utility.yul\":14962:14979   */\n      swap1\n      pop\n        /* \"#utility.yul\":15007:15009   */\n      0x1f\n        /* \"#utility.yul\":14999:15005   */\n      dup4\n        /* \"#utility.yul\":14996:15010   */\n      gt\n        /* \"#utility.yul\":15024:15025   */\n      0x01\n        /* \"#utility.yul\":15019:15637   */\n      dup2\n      eq\n      tag_282\n      jumpi\n        /* \"#utility.yul\":15681:15682   */\n      0x00\n        /* \"#utility.yul\":15698:15704   */\n      dup5\n        /* \"#utility.yul\":15695:15772   */\n      iszero\n      tag_283\n      jumpi\n        /* \"#utility.yul\":15747:15756   */\n      dup3\n        /* \"#utility.yul\":15742:15745   */\n      dup8\n        /* \"#utility.yul\":15738:15757   */\n      add\n        /* \"#utility.yul\":15732:15758   */\n      mload\n        /* \"#utility.yul\":15723:15758   */\n      swap1\n      pop\n        /* \"#utility.yul\":15695:15772   */\n    tag_283:\n        /* \"#utility.yul\":15798:15865   */\n      tag_284\n        /* \"#utility.yul\":15858:15864   */\n      dup6\n        /* \"#utility.yul\":15851:15856   */\n      dup3\n        /* \"#utility.yul\":15798:15865   */\n      tag_128\n      jump\t// in\n    tag_284:\n        /* \"#utility.yul\":15792:15796   */\n      dup7\n        /* \"#utility.yul\":15785:15866   */\n      sstore\n        /* \"#utility.yul\":15654:15876   */\n      pop\n        /* \"#utility.yul\":14989:15876   */\n      jump(tag_281)\n        /* \"#utility.yul\":15019:15637   */\n    tag_282:\n        /* \"#utility.yul\":15071:15075   */\n      0x1f\n        /* \"#utility.yul\":15067:15076   */\n      not\n        /* \"#utility.yul\":15059:15065   */\n      dup5\n        /* \"#utility.yul\":15055:15077   */\n      and\n        /* \"#utility.yul\":15105:15142   */\n      tag_285\n        /* \"#utility.yul\":15137:15141   */\n      dup7\n        /* \"#utility.yul\":15105:15142   */\n      tag_114\n      jump\t// in\n    tag_285:\n        /* \"#utility.yul\":15164:15165   */\n      0x00\n        /* \"#utility.yul\":15178:15386   */\n    tag_286:\n        /* \"#utility.yul\":15192:15199   */\n      dup3\n        /* \"#utility.yul\":15189:15190   */\n      dup2\n        /* \"#utility.yul\":15186:15200   */\n      lt\n        /* \"#utility.yul\":15178:15386   */\n      iszero\n      tag_288\n      jumpi\n        /* \"#utility.yul\":15271:15280   */\n      dup5\n        /* \"#utility.yul\":15266:15269   */\n      dup10\n        /* \"#utility.yul\":15262:15281   */\n      add\n        /* \"#utility.yul\":15256:15282   */\n      mload\n        /* \"#utility.yul\":15248:15254   */\n      dup3\n        /* \"#utility.yul\":15241:15283   */\n      sstore\n        /* \"#utility.yul\":15322:15323   */\n      0x01\n        /* \"#utility.yul\":15314:15320   */\n      dup3\n        /* \"#utility.yul\":15310:15324   */\n      add\n        /* \"#utility.yul\":15300:15324   */\n      swap2\n      pop\n        /* \"#utility.yul\":15369:15371   */\n      0x20\n        /* \"#utility.yul\":15358:15367   */\n      dup6\n        /* \"#utility.yul\":15354:15372   */\n      add\n        /* \"#utility.yul\":15341:15372   */\n      swap5\n      pop\n        /* \"#utility.yul\":15215:15219   */\n      0x20\n        /* \"#utility.yul\":15212:15213   */\n      dup2\n        /* \"#utility.yul\":15208:15220   */\n      add\n        /* \"#utility.yul\":15203:15220   */\n      swap1\n      pop\n        /* \"#utility.yul\":15178:15386   */\n      jump(tag_286)\n    tag_288:\n        /* \"#utility.yul\":15414:15420   */\n      dup7\n        /* \"#utility.yul\":15405:15412   */\n      dup4\n        /* \"#utility.yul\":15402:15421   */\n      lt\n        /* \"#utility.yul\":15399:15578   */\n      iszero\n      tag_289\n      jumpi\n        /* \"#utility.yul\":15472:15481   */\n      dup5\n        /* \"#utility.yul\":15467:15470   */\n      dup10\n        /* \"#utility.yul\":15463:15482   */\n      add\n        /* \"#utility.yul\":15457:15483   */\n      mload\n        /* \"#utility.yul\":15515:15563   */\n      tag_290\n        /* \"#utility.yul\":15557:15561   */\n      0x1f\n        /* \"#utility.yul\":15549:15555   */\n      dup10\n        /* \"#utility.yul\":15545:15562   */\n      and\n        /* \"#utility.yul\":15534:15543   */\n      dup3\n        /* \"#utility.yul\":15515:15563   */\n      tag_127\n      jump\t// in\n    tag_290:\n        /* \"#utility.yul\":15507:15513   */\n      dup4\n        /* \"#utility.yul\":15500:15564   */\n      sstore\n        /* \"#utility.yul\":15422:15578   */\n      pop\n        /* \"#utility.yul\":15399:15578   */\n    tag_289:\n        /* \"#utility.yul\":15624:15625   */\n      0x01\n        /* \"#utility.yul\":15620:15621   */\n      0x02\n        /* \"#utility.yul\":15612:15618   */\n      dup9\n        /* \"#utility.yul\":15608:15622   */\n      mul\n        /* \"#utility.yul\":15604:15626   */\n      add\n        /* \"#utility.yul\":15598:15602   */\n      dup9\n        /* \"#utility.yul\":15591:15627   */\n      sstore\n        /* \"#utility.yul\":15026:15637   */\n      pop\n      pop\n      pop\n        /* \"#utility.yul\":14989:15876   */\n    tag_281:\n      pop\n        /* \"#utility.yul\":14579:15882   */\n      pop\n      pop\n      pop\n        /* \"#utility.yul\":14487:15882   */\n      pop\n      pop\n      jump\t// out\n\n    auxdata: 0xa26469706673582212205a5a374c049cb47f24769381526459e56fc7ab5abdcfe54631f6b01e5944ecee64736f6c63430008130033\n}\n",
				"bytecode": {
					"linkReferences": {},
					"object": "608060405234801561001057600080fd5b50336000806101000a81548173ffffffffffffffffffffffffffffffffffffffff021916908373ffffffffffffffffffffffffffffffffffffffff160217905550610f44806100606000396000f3fe608060405234801561001057600080fd5b50600436106100885760003560e01c806335b8e8201161005b57806335b8e820146101295780633866965c1461015a578063462e91ec146101785780638da5cb5b1461019457610088565b80630121b93f1461008d57806309eef43e146100a95780630deb56ab146100d95780633477ee2e146100f7575b600080fd5b6100a760048036038101906100a291906106c2565b6101b2565b005b6100c360048036038101906100be919061074d565b61030a565b6040516100d09190610795565b60405180910390f35b6100e161032a565b6040516100ee91906107bf565b60405180910390f35b610111600480360381019061010c91906106c2565b610334565b6040516101209392919061086a565b60405180910390f35b610143600480360381019061013e91906106c2565b6103e6565b6040516101519291906108a8565b60405180910390f35b61016261050a565b60405161016f91906107bf565b60405180910390f35b610192600480360381019061018d919061093d565b610510565b005b61019c61065e565b6040516101a99190610999565b60405180910390f35b600260003373ffffffffffffffffffffffffffffffffffffffff1673ffffffffffffffffffffffffffffffffffffffff16815260200190815260200160002060009054906101000a900460ff161561023f576040517f08c379a000000000000000000000000000000000000000000000000000000000815260040161023690610a00565b60405180910390fd5b6003548110610283576040517f08c379a000000000000000000000000000000000000000000000000000000000815260040161027a90610a6c565b60405180910390fd5b6001600260003373ffffffffffffffffffffffffffffffffffffffff1673ffffffffffffffffffffffffffffffffffffffff16815260200190815260200160002060006101000a81548160ff02191690831515021790555060016000828152602001908152602001600020600201600081548092919061030290610abb565b919050555050565b60026020528060005260406000206000915054906101000a900460ff1681565b6000600354905090565b600160205280600052604060002060009150905080600001549080600101805461035d90610b32565b80601f016020809104026020016040519081016040528092919081815260200182805461038990610b32565b80156103d65780601f106103ab576101008083540402835291602001916103d6565b820191906000526020600020905b8154815290600101906020018083116103b957829003601f168201915b5050505050908060020154905083565b60606000600354831061042e576040517f08c379a000000000000000000000000000000000000000000000000000000000815260040161042590610baf565b60405180910390fd5b6000600160008581526020019081526020016000206040518060600160405290816000820154815260200160018201805461046890610b32565b80601f016020809104026020016040519081016040528092919081815260200182805461049490610b32565b80156104e15780601f106104b6576101008083540402835291602001916104e1565b820191906000526020600020905b8154815290600101906020018083116104c457829003601f168201915b505050505081526020016002820154815250509050806020015181604001519250925050915091565b60035481565b60008054906101000a900473ffffffffffffffffffffffffffffffffffffffff1673ffffffffffffffffffffffffffffffffffffffff163373ffffffffffffffffffffffffffffffffffffffff161461059e576040517f08c379a000000000000000000000000000000000000000000000000000000000815260040161059590610c41565b60405180910390fd5b6040518060600160405280600354815260200183838080601f016020809104026020016040519081016040528093929190818152602001838380828437600081840152601f19601f82011690508083019250505050505050815260200160008152506001600060035481526020019081526020016000206000820151816000015560208201518160010190816106349190610e3c565b50604082015181600201559050506003600081548092919061065590610abb565b91905055505050565b60008054906101000a900473ffffffffffffffffffffffffffffffffffffffff1681565b600080fd5b600080fd5b6000819050919050565b61069f8161068c565b81146106aa57600080fd5b50565b6000813590506106bc81610696565b92915050565b6000602082840312156106d8576106d7610682565b5b60006106e6848285016106ad565b91505092915050565b600073ffffffffffffffffffffffffffffffffffffffff82169050919050565b600061071a826106ef565b9050919050565b61072a8161070f565b811461073557600080fd5b50565b60008135905061074781610721565b92915050565b60006020828403121561076357610762610682565b5b600061077184828501610738565b91505092915050565b60008115159050919050565b61078f8161077a565b82525050565b60006020820190506107aa6000830184610786565b92915050565b6107b98161068c565b82525050565b60006020820190506107d460008301846107b0565b92915050565b600081519050919050565b600082825260208201905092915050565b60005b838110156108145780820151818401526020810190506107f9565b60008484015250505050565b6000601f19601f8301169050919050565b600061083c826107da565b61084681856107e5565b93506108568185602086016107f6565b61085f81610820565b840191505092915050565b600060608201905061087f60008301866107b0565b81810360208301526108918185610831565b90506108a060408301846107b0565b949350505050565b600060408201905081810360008301526108c28185610831565b90506108d160208301846107b0565b9392505050565b600080fd5b600080fd5b600080fd5b60008083601f8401126108fd576108fc6108d8565b5b8235905067ffffffffffffffff81111561091a576109196108dd565b5b602083019150836001820283011115610936576109356108e2565b5b9250929050565b6000806020838503121561095457610953610682565b5b600083013567ffffffffffffffff81111561097257610971610687565b5b61097e858286016108e7565b92509250509250929050565b6109938161070f565b82525050565b60006020820190506109ae600083018461098a565b92915050565b7f596f75206861766520616c726561647920766f74656400000000000000000000600082015250565b60006109ea6016836107e5565b91506109f5826109b4565b602082019050919050565b60006020820190508181036000830152610a19816109dd565b9050919050565b7f496e76616c69642063616e646964617465204944000000000000000000000000600082015250565b6000610a566014836107e5565b9150610a6182610a20565b602082019050919050565b60006020820190508181036000830152610a8581610a49565b9050919050565b7f4e487b7100000000000000000000000000000000000000000000000000000000600052601160045260246000fd5b6000610ac68261068c565b91507fffffffffffffffffffffffffffffffffffffffffffffffffffffffffffffffff8203610af857610af7610a8c565b5b600182019050919050565b7f4e487b7100000000000000000000000000000000000000000000000000000000600052602260045260246000fd5b60006002820490506001821680610b4a57607f821691505b602082108103610b5d57610b5c610b03565b5b50919050565b7f43616e64696461746520646f6573206e6f742065786973740000000000000000600082015250565b6000610b996018836107e5565b9150610ba482610b63565b602082019050919050565b60006020820190508181036000830152610bc881610b8c565b9050919050565b7f4f6e6c7920636f6e7472616374206f776e65722063616e20706572666f726d2060008201527f7468697320616374696f6e000000000000000000000000000000000000000000602082015250565b6000610c2b602b836107e5565b9150610c3682610bcf565b604082019050919050565b60006020820190508181036000830152610c5a81610c1e565b9050919050565b7f4e487b7100000000000000000000000000000000000000000000000000000000600052604160045260246000fd5b60008190508160005260206000209050919050565b60006020601f8301049050919050565b600082821b905092915050565b600060088302610cf27fffffffffffffffffffffffffffffffffffffffffffffffffffffffffffffffff82610cb5565b610cfc8683610cb5565b95508019841693508086168417925050509392505050565b6000819050919050565b6000610d39610d34610d2f8461068c565b610d14565b61068c565b9050919050565b6000819050919050565b610d5383610d1e565b610d67610d5f82610d40565b848454610cc2565b825550505050565b600090565b610d7c610d6f565b610d87818484610d4a565b505050565b5b81811015610dab57610da0600082610d74565b600181019050610d8d565b5050565b601f821115610df057610dc181610c90565b610dca84610ca5565b81016020851015610dd9578190505b610ded610de585610ca5565b830182610d8c565b50505b505050565b600082821c905092915050565b6000610e1360001984600802610df5565b1980831691505092915050565b6000610e2c8383610e02565b9150826002028217905092915050565b610e45826107da565b67ffffffffffffffff811115610e5e57610e5d610c61565b5b610e688254610b32565b610e73828285610daf565b600060209050601f831160018114610ea65760008415610e94578287015190505b610e9e8582610e20565b865550610f06565b601f198416610eb486610c90565b60005b82811015610edc57848901518255600182019150602085019450602081019050610eb7565b86831015610ef95784890151610ef5601f891682610e02565b8355505b6001600288020188555050505b50505050505056fea26469706673582212205a5a374c049cb47f24769381526459e56fc7ab5abdcfe54631f6b01e5944ecee64736f6c63430008130033",
					"opcodes": "PUSH1 0x80 PUSH1 0x40 MSTORE CALLVALUE DUP1 ISZERO PUSH2 0x10 JUMPI PUSH1 0x0 DUP1 REVERT JUMPDEST POP CALLER PUSH1 0x0 DUP1 PUSH2 0x100 EXP DUP2 SLOAD DUP2 PUSH20 0xFFFFFFFFFFFFFFFFFFFFFFFFFFFFFFFFFFFFFFFF MUL NOT AND SWAP1 DUP4 PUSH20 0xFFFFFFFFFFFFFFFFFFFFFFFFFFFFFFFFFFFFFFFF AND MUL OR SWAP1 SSTORE POP PUSH2 0xF44 DUP1 PUSH2 0x60 PUSH1 0x0 CODECOPY PUSH1 0x0 RETURN INVALID PUSH1 0x80 PUSH1 0x40 MSTORE CALLVALUE DUP1 ISZERO PUSH2 0x10 JUMPI PUSH1 0x0 DUP1 REVERT JUMPDEST POP PUSH1 0x4 CALLDATASIZE LT PUSH2 0x88 JUMPI PUSH1 0x0 CALLDATALOAD PUSH1 0xE0 SHR DUP1 PUSH4 0x35B8E820 GT PUSH2 0x5B JUMPI DUP1 PUSH4 0x35B8E820 EQ PUSH2 0x129 JUMPI DUP1 PUSH4 0x3866965C EQ PUSH2 0x15A JUMPI DUP1 PUSH4 0x462E91EC EQ PUSH2 0x178 JUMPI DUP1 PUSH4 0x8DA5CB5B EQ PUSH2 0x194 JUMPI PUSH2 0x88 JUMP JUMPDEST DUP1 PUSH4 0x121B93F EQ PUSH2 0x8D JUMPI DUP1 PUSH4 0x9EEF43E EQ PUSH2 0xA9 JUMPI DUP1 PUSH4 0xDEB56AB EQ PUSH2 0xD9 JUMPI DUP1 PUSH4 0x3477EE2E EQ PUSH2 0xF7 JUMPI JUMPDEST PUSH1 0x0 DUP1 REVERT JUMPDEST PUSH2 0xA7 PUSH1 0x4 DUP1 CALLDATASIZE SUB DUP2 ADD SWAP1 PUSH2 0xA2 SWAP2 SWAP1 PUSH2 0x6C2 JUMP JUMPDEST PUSH2 0x1B2 JUMP JUMPDEST STOP JUMPDEST PUSH2 0xC3 PUSH1 0x4 DUP1 CALLDATASIZE SUB DUP2 ADD SWAP1 PUSH2 0xBE SWAP2 SWAP1 PUSH2 0x74D JUMP JUMPDEST PUSH2 0x30A JUMP JUMPDEST PUSH1 0x40 MLOAD PUSH2 0xD0 SWAP2 SWAP1 PUSH2 0x795 JUMP JUMPDEST PUSH1 0x40 MLOAD DUP1 SWAP2 SUB SWAP1 RETURN JUMPDEST PUSH2 0xE1 PUSH2 0x32A JUMP JUMPDEST PUSH1 0x40 MLOAD PUSH2 0xEE SWAP2 SWAP1 PUSH2 0x7BF JUMP JUMPDEST PUSH1 0x40 MLOAD DUP1 SWAP2 SUB SWAP1 RETURN JUMPDEST PUSH2 0x111 PUSH1 0x4 DUP1 CALLDATASIZE SUB DUP2 ADD SWAP1 PUSH2 0x10C SWAP2 SWAP1 PUSH2 0x6C2 JUMP JUMPDEST PUSH2 0x334 JUMP JUMPDEST PUSH1 0x40 MLOAD PUSH2 0x120 SWAP4 SWAP3 SWAP2 SWAP1 PUSH2 0x86A JUMP JUMPDEST PUSH1 0x40 MLOAD DUP1 SWAP2 SUB SWAP1 RETURN JUMPDEST PUSH2 0x143 PUSH1 0x4 DUP1 CALLDATASIZE SUB DUP2 ADD SWAP1 PUSH2 0x13E SWAP2 SWAP1 PUSH2 0x6C2 JUMP JUMPDEST PUSH2 0x3E6 JUMP JUMPDEST PUSH1 0x40 MLOAD PUSH2 0x151 SWAP3 SWAP2 SWAP1 PUSH2 0x8A8 JUMP JUMPDEST PUSH1 0x40 MLOAD DUP1 SWAP2 SUB SWAP1 RETURN JUMPDEST PUSH2 0x162 PUSH2 0x50A JUMP JUMPDEST PUSH1 0x40 MLOAD PUSH2 0x16F SWAP2 SWAP1 PUSH2 0x7BF JUMP JUMPDEST PUSH1 0x40 MLOAD DUP1 SWAP2 SUB SWAP1 RETURN JUMPDEST PUSH2 0x192 PUSH1 0x4 DUP1 CALLDATASIZE SUB DUP2 ADD SWAP1 PUSH2 0x18D SWAP2 SWAP1 PUSH2 0x93D JUMP JUMPDEST PUSH2 0x510 JUMP JUMPDEST STOP JUMPDEST PUSH2 0x19C PUSH2 0x65E JUMP JUMPDEST PUSH1 0x40 MLOAD PUSH2 0x1A9 SWAP2 SWAP1 PUSH2 0x999 JUMP JUMPDEST PUSH1 0x40 MLOAD DUP1 SWAP2 SUB SWAP1 RETURN JUMPDEST PUSH1 0x2 PUSH1 0x0 CALLER PUSH20 0xFFFFFFFFFFFFFFFFFFFFFFFFFFFFFFFFFFFFFFFF AND PUSH20 0xFFFFFFFFFFFFFFFFFFFFFFFFFFFFFFFFFFFFFFFF AND DUP2 MSTORE PUSH1 0x20 ADD SWAP1 DUP2 MSTORE PUSH1 0x20 ADD PUSH1 0x0 KECCAK256 PUSH1 0x0 SWAP1 SLOAD SWAP1 PUSH2 0x100 EXP SWAP1 DIV PUSH1 0xFF AND ISZERO PUSH2 0x23F JUMPI PUSH1 0x40 MLOAD PUSH32 0x8C379A000000000000000000000000000000000000000000000000000000000 DUP2 MSTORE PUSH1 0x4 ADD PUSH2 0x236 SWAP1 PUSH2 0xA00 JUMP JUMPDEST PUSH1 0x40 MLOAD DUP1 SWAP2 SUB SWAP1 REVERT JUMPDEST PUSH1 0x3 SLOAD DUP2 LT PUSH2 0x283 JUMPI PUSH1 0x40 MLOAD PUSH32 0x8C379A000000000000000000000000000000000000000000000000000000000 DUP2 MSTORE PUSH1 0x4 ADD PUSH2 0x27A SWAP1 PUSH2 0xA6C JUMP JUMPDEST PUSH1 0x40 MLOAD DUP1 SWAP2 SUB SWAP1 REVERT JUMPDEST PUSH1 0x1 PUSH1 0x2 PUSH1 0x0 CALLER PUSH20 0xFFFFFFFFFFFFFFFFFFFFFFFFFFFFFFFFFFFFFFFF AND PUSH20 0xFFFFFFFFFFFFFFFFFFFFFFFFFFFFFFFFFFFFFFFF AND DUP2 MSTORE PUSH1 0x20 ADD SWAP1 DUP2 MSTORE PUSH1 0x20 ADD PUSH1 0x0 KECCAK256 PUSH1 0x0 PUSH2 0x100 EXP DUP2 SLOAD DUP2 PUSH1 0xFF MUL NOT AND SWAP1 DUP4 ISZERO ISZERO MUL OR SWAP1 SSTORE POP PUSH1 0x1 PUSH1 0x0 DUP3 DUP2 MSTORE PUSH1 0x20 ADD SWAP1 DUP2 MSTORE PUSH1 0x20 ADD PUSH1 0x0 KECCAK256 PUSH1 0x2 ADD PUSH1 0x0 DUP2 SLOAD DUP1 SWAP3 SWAP2 SWAP1 PUSH2 0x302 SWAP1 PUSH2 0xABB JUMP JUMPDEST SWAP2 SWAP1 POP SSTORE POP POP JUMP JUMPDEST PUSH1 0x2 PUSH1 0x20 MSTORE DUP1 PUSH1 0x0 MSTORE PUSH1 0x40 PUSH1 0x0 KECCAK256 PUSH1 0x0 SWAP2 POP SLOAD SWAP1 PUSH2 0x100 EXP SWAP1 DIV PUSH1 0xFF AND DUP2 JUMP JUMPDEST PUSH1 0x0 PUSH1 0x3 SLOAD SWAP1 POP SWAP1 JUMP JUMPDEST PUSH1 0x1 PUSH1 0x20 MSTORE DUP1 PUSH1 0x0 MSTORE PUSH1 0x40 PUSH1 0x0 KECCAK256 PUSH1 0x0 SWAP2 POP SWAP1 POP DUP1 PUSH1 0x0 ADD SLOAD SWAP1 DUP1 PUSH1 0x1 ADD DUP1 SLOAD PUSH2 0x35D SWAP1 PUSH2 0xB32 JUMP JUMPDEST DUP1 PUSH1 0x1F ADD PUSH1 0x20 DUP1 SWAP2 DIV MUL PUSH1 0x20 ADD PUSH1 0x40 MLOAD SWAP1 DUP2 ADD PUSH1 0x40 MSTORE DUP1 SWAP3 SWAP2 SWAP1 DUP2 DUP2 MSTORE PUSH1 0x20 ADD DUP3 DUP1 SLOAD PUSH2 0x389 SWAP1 PUSH2 0xB32 JUMP JUMPDEST DUP1 ISZERO PUSH2 0x3D6 JUMPI DUP1 PUSH1 0x1F LT PUSH2 0x3AB JUMPI PUSH2 0x100 DUP1 DUP4 SLOAD DIV MUL DUP4 MSTORE SWAP2 PUSH1 0x20 ADD SWAP2 PUSH2 0x3D6 JUMP JUMPDEST DUP3 ADD SWAP2 SWAP1 PUSH1 0x0 MSTORE PUSH1 0x20 PUSH1 0x0 KECCAK256 SWAP1 JUMPDEST DUP2 SLOAD DUP2 MSTORE SWAP1 PUSH1 0x1 ADD SWAP1 PUSH1 0x20 ADD DUP1 DUP4 GT PUSH2 0x3B9 JUMPI DUP3 SWAP1 SUB PUSH1 0x1F AND DUP3 ADD SWAP2 JUMPDEST POP POP POP POP POP SWAP1 DUP1 PUSH1 0x2 ADD SLOAD SWAP1 POP DUP4 JUMP JUMPDEST PUSH1 0x60 PUSH1 0x0 PUSH1 0x3 SLOAD DUP4 LT PUSH2 0x42E JUMPI PUSH1 0x40 MLOAD PUSH32 0x8C379A000000000000000000000000000000000000000000000000000000000 DUP2 MSTORE PUSH1 0x4 ADD PUSH2 0x425 SWAP1 PUSH2 0xBAF JUMP JUMPDEST PUSH1 0x40 MLOAD DUP1 SWAP2 SUB SWAP1 REVERT JUMPDEST PUSH1 0x0 PUSH1 0x1 PUSH1 0x0 DUP6 DUP2 MSTORE PUSH1 0x20 ADD SWAP1 DUP2 MSTORE PUSH1 0x20 ADD PUSH1 0x0 KECCAK256 PUSH1 0x40 MLOAD DUP1 PUSH1 0x60 ADD PUSH1 0x40 MSTORE SWAP1 DUP2 PUSH1 0x0 DUP3 ADD SLOAD DUP2 MSTORE PUSH1 0x20 ADD PUSH1 0x1 DUP3 ADD DUP1 SLOAD PUSH2 0x468 SWAP1 PUSH2 0xB32 JUMP JUMPDEST DUP1 PUSH1 0x1F ADD PUSH1 0x20 DUP1 SWAP2 DIV MUL PUSH1 0x20 ADD PUSH1 0x40 MLOAD SWAP1 DUP2 ADD PUSH1 0x40 MSTORE DUP1 SWAP3 SWAP2 SWAP1 DUP2 DUP2 MSTORE PUSH1 0x20 ADD DUP3 DUP1 SLOAD PUSH2 0x494 SWAP1 PUSH2 0xB32 JUMP JUMPDEST DUP1 ISZERO PUSH2 0x4E1 JUMPI DUP1 PUSH1 0x1F LT PUSH2 0x4B6 JUMPI PUSH2 0x100 DUP1 DUP4 SLOAD DIV MUL DUP4 MSTORE SWAP2 PUSH1 0x20 ADD SWAP2 PUSH2 0x4E1 JUMP JUMPDEST DUP3 ADD SWAP2 SWAP1 PUSH1 0x0 MSTORE PUSH1 0x20 PUSH1 0x0 KECCAK256 SWAP1 JUMPDEST DUP2 SLOAD DUP2 MSTORE SWAP1 PUSH1 0x1 ADD SWAP1 PUSH1 0x20 ADD DUP1 DUP4 GT PUSH2 0x4C4 JUMPI DUP3 SWAP1 SUB PUSH1 0x1F AND DUP3 ADD SWAP2 JUMPDEST POP POP POP POP POP DUP2 MSTORE PUSH1 0x20 ADD PUSH1 0x2 DUP3 ADD SLOAD DUP2 MSTORE POP POP SWAP1 POP DUP1 PUSH1 0x20 ADD MLOAD DUP2 PUSH1 0x40 ADD MLOAD SWAP3 POP SWAP3 POP POP SWAP2 POP SWAP2 JUMP JUMPDEST PUSH1 0x3 SLOAD DUP2 JUMP JUMPDEST PUSH1 0x0 DUP1 SLOAD SWAP1 PUSH2 0x100 EXP SWAP1 DIV PUSH20 0xFFFFFFFFFFFFFFFFFFFFFFFFFFFFFFFFFFFFFFFF AND PUSH20 0xFFFFFFFFFFFFFFFFFFFFFFFFFFFFFFFFFFFFFFFF AND CALLER PUSH20 0xFFFFFFFFFFFFFFFFFFFFFFFFFFFFFFFFFFFFFFFF AND EQ PUSH2 0x59E JUMPI PUSH1 0x40 MLOAD PUSH32 0x8C379A000000000000000000000000000000000000000000000000000000000 DUP2 MSTORE PUSH1 0x4 ADD PUSH2 0x595 SWAP1 PUSH2 0xC41 JUMP JUMPDEST PUSH1 0x40 MLOAD DUP1 SWAP2 SUB SWAP1 REVERT JUMPDEST PUSH1 0x40 MLOAD DUP1 PUSH1 0x60 ADD PUSH1 0x40 MSTORE DUP1 PUSH1 0x3 SLOAD DUP2 MSTORE PUSH1 0x20 ADD DUP4 DUP4 DUP1 DUP1 PUSH1 0x1F ADD PUSH1 0x20 DUP1 SWAP2 DIV MUL PUSH1 0x20 ADD PUSH1 0x40 MLOAD SWAP1 DUP2 ADD PUSH1 0x40 MSTORE DUP1 SWAP4 SWAP3 SWAP2 SWAP1 DUP2 DUP2 MSTORE PUSH1 0x20 ADD DUP4 DUP4 DUP1 DUP3 DUP5 CALLDATACOPY PUSH1 0x0 DUP2 DUP5 ADD MSTORE PUSH1 0x1F NOT PUSH1 0x1F DUP3 ADD AND SWAP1 POP DUP1 DUP4 ADD SWAP3 POP POP POP POP POP POP POP DUP2 MSTORE PUSH1 0x20 ADD PUSH1 0x0 DUP2 MSTORE POP PUSH1 0x1 PUSH1 0x0 PUSH1 0x3 SLOAD DUP2 MSTORE PUSH1 0x20 ADD SWAP1 DUP2 MSTORE PUSH1 0x20 ADD PUSH1 0x0 KECCAK256 PUSH1 0x0 DUP3 ADD MLOAD DUP2 PUSH1 0x0 ADD SSTORE PUSH1 0x20 DUP3 ADD MLOAD DUP2 PUSH1 0x1 ADD SWAP1 DUP2 PUSH2 0x634 SWAP2 SWAP1 PUSH2 0xE3C JUMP JUMPDEST POP PUSH1 0x40 DUP3 ADD MLOAD DUP2 PUSH1 0x2 ADD SSTORE SWAP1 POP POP PUSH1 0x3 PUSH1 0x0 DUP2 SLOAD DUP1 SWAP3 SWAP2 SWAP1 PUSH2 0x655 SWAP1 PUSH2 0xABB JUMP JUMPDEST SWAP2 SWAP1 POP SSTORE POP POP POP JUMP JUMPDEST PUSH1 0x0 DUP1 SLOAD SWAP1 PUSH2 0x100 EXP SWAP1 DIV PUSH20 0xFFFFFFFFFFFFFFFFFFFFFFFFFFFFFFFFFFFFFFFF AND DUP2 JUMP JUMPDEST PUSH1 0x0 DUP1 REVERT JUMPDEST PUSH1 0x0 DUP1 REVERT JUMPDEST PUSH1 0x0 DUP2 SWAP1 POP SWAP2 SWAP1 POP JUMP JUMPDEST PUSH2 0x69F DUP2 PUSH2 0x68C JUMP JUMPDEST DUP2 EQ PUSH2 0x6AA JUMPI PUSH1 0x0 DUP1 REVERT JUMPDEST POP JUMP JUMPDEST PUSH1 0x0 DUP2 CALLDATALOAD SWAP1 POP PUSH2 0x6BC DUP2 PUSH2 0x696 JUMP JUMPDEST SWAP3 SWAP2 POP POP JUMP JUMPDEST PUSH1 0x0 PUSH1 0x20 DUP3 DUP5 SUB SLT ISZERO PUSH2 0x6D8 JUMPI PUSH2 0x6D7 PUSH2 0x682 JUMP JUMPDEST JUMPDEST PUSH1 0x0 PUSH2 0x6E6 DUP5 DUP3 DUP6 ADD PUSH2 0x6AD JUMP JUMPDEST SWAP2 POP POP SWAP3 SWAP2 POP POP JUMP JUMPDEST PUSH1 0x0 PUSH20 0xFFFFFFFFFFFFFFFFFFFFFFFFFFFFFFFFFFFFFFFF DUP3 AND SWAP1 POP SWAP2 SWAP1 POP JUMP JUMPDEST PUSH1 0x0 PUSH2 0x71A DUP3 PUSH2 0x6EF JUMP JUMPDEST SWAP1 POP SWAP2 SWAP1 POP JUMP JUMPDEST PUSH2 0x72A DUP2 PUSH2 0x70F JUMP JUMPDEST DUP2 EQ PUSH2 0x735 JUMPI PUSH1 0x0 DUP1 REVERT JUMPDEST POP JUMP JUMPDEST PUSH1 0x0 DUP2 CALLDATALOAD SWAP1 POP PUSH2 0x747 DUP2 PUSH2 0x721 JUMP JUMPDEST SWAP3 SWAP2 POP POP JUMP JUMPDEST PUSH1 0x0 PUSH1 0x20 DUP3 DUP5 SUB SLT ISZERO PUSH2 0x763 JUMPI PUSH2 0x762 PUSH2 0x682 JUMP JUMPDEST JUMPDEST PUSH1 0x0 PUSH2 0x771 DUP5 DUP3 DUP6 ADD PUSH2 0x738 JUMP JUMPDEST SWAP2 POP POP SWAP3 SWAP2 POP POP JUMP JUMPDEST PUSH1 0x0 DUP2 ISZERO ISZERO SWAP1 POP SWAP2 SWAP1 POP JUMP JUMPDEST PUSH2 0x78F DUP2 PUSH2 0x77A JUMP JUMPDEST DUP3 MSTORE POP POP JUMP JUMPDEST PUSH1 0x0 PUSH1 0x20 DUP3 ADD SWAP1 POP PUSH2 0x7AA PUSH1 0x0 DUP4 ADD DUP5 PUSH2 0x786 JUMP JUMPDEST SWAP3 SWAP2 POP POP JUMP JUMPDEST PUSH2 0x7B9 DUP2 PUSH2 0x68C JUMP JUMPDEST DUP3 MSTORE POP POP JUMP JUMPDEST PUSH1 0x0 PUSH1 0x20 DUP3 ADD SWAP1 POP PUSH2 0x7D4 PUSH1 0x0 DUP4 ADD DUP5 PUSH2 0x7B0 JUMP JUMPDEST SWAP3 SWAP2 POP POP JUMP JUMPDEST PUSH1 0x0 DUP2 MLOAD SWAP1 POP SWAP2 SWAP1 POP JUMP JUMPDEST PUSH1 0x0 DUP3 DUP3 MSTORE PUSH1 0x20 DUP3 ADD SWAP1 POP SWAP3 SWAP2 POP POP JUMP JUMPDEST PUSH1 0x0 JUMPDEST DUP4 DUP2 LT ISZERO PUSH2 0x814 JUMPI DUP1 DUP3 ADD MLOAD DUP2 DUP5 ADD MSTORE PUSH1 0x20 DUP2 ADD SWAP1 POP PUSH2 0x7F9 JUMP JUMPDEST PUSH1 0x0 DUP5 DUP5 ADD MSTORE POP POP POP POP JUMP JUMPDEST PUSH1 0x0 PUSH1 0x1F NOT PUSH1 0x1F DUP4 ADD AND SWAP1 POP SWAP2 SWAP1 POP JUMP JUMPDEST PUSH1 0x0 PUSH2 0x83C DUP3 PUSH2 0x7DA JUMP JUMPDEST PUSH2 0x846 DUP2 DUP6 PUSH2 0x7E5 JUMP JUMPDEST SWAP4 POP PUSH2 0x856 DUP2 DUP6 PUSH1 0x20 DUP7 ADD PUSH2 0x7F6 JUMP JUMPDEST PUSH2 0x85F DUP2 PUSH2 0x820 JUMP JUMPDEST DUP5 ADD SWAP2 POP POP SWAP3 SWAP2 POP POP JUMP JUMPDEST PUSH1 0x0 PUSH1 0x60 DUP3 ADD SWAP1 POP PUSH2 0x87F PUSH1 0x0 DUP4 ADD DUP7 PUSH2 0x7B0 JUMP JUMPDEST DUP2 DUP2 SUB PUSH1 0x20 DUP4 ADD MSTORE PUSH2 0x891 DUP2 DUP6 PUSH2 0x831 JUMP JUMPDEST SWAP1 POP PUSH2 0x8A0 PUSH1 0x40 DUP4 ADD DUP5 PUSH2 0x7B0 JUMP JUMPDEST SWAP5 SWAP4 POP POP POP POP JUMP JUMPDEST PUSH1 0x0 PUSH1 0x40 DUP3 ADD SWAP1 POP DUP2 DUP2 SUB PUSH1 0x0 DUP4 ADD MSTORE PUSH2 0x8C2 DUP2 DUP6 PUSH2 0x831 JUMP JUMPDEST SWAP1 POP PUSH2 0x8D1 PUSH1 0x20 DUP4 ADD DUP5 PUSH2 0x7B0 JUMP JUMPDEST SWAP4 SWAP3 POP POP POP JUMP JUMPDEST PUSH1 0x0 DUP1 REVERT JUMPDEST PUSH1 0x0 DUP1 REVERT JUMPDEST PUSH1 0x0 DUP1 REVERT JUMPDEST PUSH1 0x0 DUP1 DUP4 PUSH1 0x1F DUP5 ADD SLT PUSH2 0x8FD JUMPI PUSH2 0x8FC PUSH2 0x8D8 JUMP JUMPDEST JUMPDEST DUP3 CALLDATALOAD SWAP1 POP PUSH8 0xFFFFFFFFFFFFFFFF DUP2 GT ISZERO PUSH2 0x91A JUMPI PUSH2 0x919 PUSH2 0x8DD JUMP JUMPDEST JUMPDEST PUSH1 0x20 DUP4 ADD SWAP2 POP DUP4 PUSH1 0x1 DUP3 MUL DUP4 ADD GT ISZERO PUSH2 0x936 JUMPI PUSH2 0x935 PUSH2 0x8E2 JUMP JUMPDEST JUMPDEST SWAP3 POP SWAP3 SWAP1 POP JUMP JUMPDEST PUSH1 0x0 DUP1 PUSH1 0x20 DUP4 DUP6 SUB SLT ISZERO PUSH2 0x954 JUMPI PUSH2 0x953 PUSH2 0x682 JUMP JUMPDEST JUMPDEST PUSH1 0x0 DUP4 ADD CALLDATALOAD PUSH8 0xFFFFFFFFFFFFFFFF DUP2 GT ISZERO PUSH2 0x972 JUMPI PUSH2 0x971 PUSH2 0x687 JUMP JUMPDEST JUMPDEST PUSH2 0x97E DUP6 DUP3 DUP7 ADD PUSH2 0x8E7 JUMP JUMPDEST SWAP3 POP SWAP3 POP POP SWAP3 POP SWAP3 SWAP1 POP JUMP JUMPDEST PUSH2 0x993 DUP2 PUSH2 0x70F JUMP JUMPDEST DUP3 MSTORE POP POP JUMP JUMPDEST PUSH1 0x0 PUSH1 0x20 DUP3 ADD SWAP1 POP PUSH2 0x9AE PUSH1 0x0 DUP4 ADD DUP5 PUSH2 0x98A JUMP JUMPDEST SWAP3 SWAP2 POP POP JUMP JUMPDEST PUSH32 0x596F75206861766520616C726561647920766F74656400000000000000000000 PUSH1 0x0 DUP3 ADD MSTORE POP JUMP JUMPDEST PUSH1 0x0 PUSH2 0x9EA PUSH1 0x16 DUP4 PUSH2 0x7E5 JUMP JUMPDEST SWAP2 POP PUSH2 0x9F5 DUP3 PUSH2 0x9B4 JUMP JUMPDEST PUSH1 0x20 DUP3 ADD SWAP1 POP SWAP2 SWAP1 POP JUMP JUMPDEST PUSH1 0x0 PUSH1 0x20 DUP3 ADD SWAP1 POP DUP2 DUP2 SUB PUSH1 0x0 DUP4 ADD MSTORE PUSH2 0xA19 DUP2 PUSH2 0x9DD JUMP JUMPDEST SWAP1 POP SWAP2 SWAP1 POP JUMP JUMPDEST PUSH32 0x496E76616C69642063616E646964617465204944000000000000000000000000 PUSH1 0x0 DUP3 ADD MSTORE POP JUMP JUMPDEST PUSH1 0x0 PUSH2 0xA56 PUSH1 0x14 DUP4 PUSH2 0x7E5 JUMP JUMPDEST SWAP2 POP PUSH2 0xA61 DUP3 PUSH2 0xA20 JUMP JUMPDEST PUSH1 0x20 DUP3 ADD SWAP1 POP SWAP2 SWAP1 POP JUMP JUMPDEST PUSH1 0x0 PUSH1 0x20 DUP3 ADD SWAP1 POP DUP2 DUP2 SUB PUSH1 0x0 DUP4 ADD MSTORE PUSH2 0xA85 DUP2 PUSH2 0xA49 JUMP JUMPDEST SWAP1 POP SWAP2 SWAP1 POP JUMP JUMPDEST PUSH32 0x4E487B7100000000000000000000000000000000000000000000000000000000 PUSH1 0x0 MSTORE PUSH1 0x11 PUSH1 0x4 MSTORE PUSH1 0x24 PUSH1 0x0 REVERT JUMPDEST PUSH1 0x0 PUSH2 0xAC6 DUP3 PUSH2 0x68C JUMP JUMPDEST SWAP2 POP PUSH32 0xFFFFFFFFFFFFFFFFFFFFFFFFFFFFFFFFFFFFFFFFFFFFFFFFFFFFFFFFFFFFFFFF DUP3 SUB PUSH2 0xAF8 JUMPI PUSH2 0xAF7 PUSH2 0xA8C JUMP JUMPDEST JUMPDEST PUSH1 0x1 DUP3 ADD SWAP1 POP SWAP2 SWAP1 POP JUMP JUMPDEST PUSH32 0x4E487B7100000000000000000000000000000000000000000000000000000000 PUSH1 0x0 MSTORE PUSH1 0x22 PUSH1 0x4 MSTORE PUSH1 0x24 PUSH1 0x0 REVERT JUMPDEST PUSH1 0x0 PUSH1 0x2 DUP3 DIV SWAP1 POP PUSH1 0x1 DUP3 AND DUP1 PUSH2 0xB4A JUMPI PUSH1 0x7F DUP3 AND SWAP2 POP JUMPDEST PUSH1 0x20 DUP3 LT DUP2 SUB PUSH2 0xB5D JUMPI PUSH2 0xB5C PUSH2 0xB03 JUMP JUMPDEST JUMPDEST POP SWAP2 SWAP1 POP JUMP JUMPDEST PUSH32 0x43616E64696461746520646F6573206E6F742065786973740000000000000000 PUSH1 0x0 DUP3 ADD MSTORE POP JUMP JUMPDEST PUSH1 0x0 PUSH2 0xB99 PUSH1 0x18 DUP4 PUSH2 0x7E5 JUMP JUMPDEST SWAP2 POP PUSH2 0xBA4 DUP3 PUSH2 0xB63 JUMP JUMPDEST PUSH1 0x20 DUP3 ADD SWAP1 POP SWAP2 SWAP1 POP JUMP JUMPDEST PUSH1 0x0 PUSH1 0x20 DUP3 ADD SWAP1 POP DUP2 DUP2 SUB PUSH1 0x0 DUP4 ADD MSTORE PUSH2 0xBC8 DUP2 PUSH2 0xB8C JUMP JUMPDEST SWAP1 POP SWAP2 SWAP1 POP JUMP JUMPDEST PUSH32 0x4F6E6C7920636F6E7472616374206F776E65722063616E20706572666F726D20 PUSH1 0x0 DUP3 ADD MSTORE PUSH32 0x7468697320616374696F6E000000000000000000000000000000000000000000 PUSH1 0x20 DUP3 ADD MSTORE POP JUMP JUMPDEST PUSH1 0x0 PUSH2 0xC2B PUSH1 0x2B DUP4 PUSH2 0x7E5 JUMP JUMPDEST SWAP2 POP PUSH2 0xC36 DUP3 PUSH2 0xBCF JUMP JUMPDEST PUSH1 0x40 DUP3 ADD SWAP1 POP SWAP2 SWAP1 POP JUMP JUMPDEST PUSH1 0x0 PUSH1 0x20 DUP3 ADD SWAP1 POP DUP2 DUP2 SUB PUSH1 0x0 DUP4 ADD MSTORE PUSH2 0xC5A DUP2 PUSH2 0xC1E JUMP JUMPDEST SWAP1 POP SWAP2 SWAP1 POP JUMP JUMPDEST PUSH32 0x4E487B7100000000000000000000000000000000000000000000000000000000 PUSH1 0x0 MSTORE PUSH1 0x41 PUSH1 0x4 MSTORE PUSH1 0x24 PUSH1 0x0 REVERT JUMPDEST PUSH1 0x0 DUP2 SWAP1 POP DUP2 PUSH1 0x0 MSTORE PUSH1 0x20 PUSH1 0x0 KECCAK256 SWAP1 POP SWAP2 SWAP1 POP JUMP JUMPDEST PUSH1 0x0 PUSH1 0x20 PUSH1 0x1F DUP4 ADD DIV SWAP1 POP SWAP2 SWAP1 POP JUMP JUMPDEST PUSH1 0x0 DUP3 DUP3 SHL SWAP1 POP SWAP3 SWAP2 POP POP JUMP JUMPDEST PUSH1 0x0 PUSH1 0x8 DUP4 MUL PUSH2 0xCF2 PUSH32 0xFFFFFFFFFFFFFFFFFFFFFFFFFFFFFFFFFFFFFFFFFFFFFFFFFFFFFFFFFFFFFFFF DUP3 PUSH2 0xCB5 JUMP JUMPDEST PUSH2 0xCFC DUP7 DUP4 PUSH2 0xCB5 JUMP JUMPDEST SWAP6 POP DUP1 NOT DUP5 AND SWAP4 POP DUP1 DUP7 AND DUP5 OR SWAP3 POP POP POP SWAP4 SWAP3 POP POP POP JUMP JUMPDEST PUSH1 0x0 DUP2 SWAP1 POP SWAP2 SWAP1 POP JUMP JUMPDEST PUSH1 0x0 PUSH2 0xD39 PUSH2 0xD34 PUSH2 0xD2F DUP5 PUSH2 0x68C JUMP JUMPDEST PUSH2 0xD14 JUMP JUMPDEST PUSH2 0x68C JUMP JUMPDEST SWAP1 POP SWAP2 SWAP1 POP JUMP JUMPDEST PUSH1 0x0 DUP2 SWAP1 POP SWAP2 SWAP1 POP JUMP JUMPDEST PUSH2 0xD53 DUP4 PUSH2 0xD1E JUMP JUMPDEST PUSH2 0xD67 PUSH2 0xD5F DUP3 PUSH2 0xD40 JUMP JUMPDEST DUP5 DUP5 SLOAD PUSH2 0xCC2 JUMP JUMPDEST DUP3 SSTORE POP POP POP POP JUMP JUMPDEST PUSH1 0x0 SWAP1 JUMP JUMPDEST PUSH2 0xD7C PUSH2 0xD6F JUMP JUMPDEST PUSH2 0xD87 DUP2 DUP5 DUP5 PUSH2 0xD4A JUMP JUMPDEST POP POP POP JUMP JUMPDEST JUMPDEST DUP2 DUP2 LT ISZERO PUSH2 0xDAB JUMPI PUSH2 0xDA0 PUSH1 0x0 DUP3 PUSH2 0xD74 JUMP JUMPDEST PUSH1 0x1 DUP2 ADD SWAP1 POP PUSH2 0xD8D JUMP JUMPDEST POP POP JUMP JUMPDEST PUSH1 0x1F DUP3 GT ISZERO PUSH2 0xDF0 JUMPI PUSH2 0xDC1 DUP2 PUSH2 0xC90 JUMP JUMPDEST PUSH2 0xDCA DUP5 PUSH2 0xCA5 JUMP JUMPDEST DUP2 ADD PUSH1 0x20 DUP6 LT ISZERO PUSH2 0xDD9 JUMPI DUP2 SWAP1 POP JUMPDEST PUSH2 0xDED PUSH2 0xDE5 DUP6 PUSH2 0xCA5 JUMP JUMPDEST DUP4 ADD DUP3 PUSH2 0xD8C JUMP JUMPDEST POP POP JUMPDEST POP POP POP JUMP JUMPDEST PUSH1 0x0 DUP3 DUP3 SHR SWAP1 POP SWAP3 SWAP2 POP POP JUMP JUMPDEST PUSH1 0x0 PUSH2 0xE13 PUSH1 0x0 NOT DUP5 PUSH1 0x8 MUL PUSH2 0xDF5 JUMP JUMPDEST NOT DUP1 DUP4 AND SWAP2 POP POP SWAP3 SWAP2 POP POP JUMP JUMPDEST PUSH1 0x0 PUSH2 0xE2C DUP4 DUP4 PUSH2 0xE02 JUMP JUMPDEST SWAP2 POP DUP3 PUSH1 0x2 MUL DUP3 OR SWAP1 POP SWAP3 SWAP2 POP POP JUMP JUMPDEST PUSH2 0xE45 DUP3 PUSH2 0x7DA JUMP JUMPDEST PUSH8 0xFFFFFFFFFFFFFFFF DUP2 GT ISZERO PUSH2 0xE5E JUMPI PUSH2 0xE5D PUSH2 0xC61 JUMP JUMPDEST JUMPDEST PUSH2 0xE68 DUP3 SLOAD PUSH2 0xB32 JUMP JUMPDEST PUSH2 0xE73 DUP3 DUP3 DUP6 PUSH2 0xDAF JUMP JUMPDEST PUSH1 0x0 PUSH1 0x20 SWAP1 POP PUSH1 0x1F DUP4 GT PUSH1 0x1 DUP2 EQ PUSH2 0xEA6 JUMPI PUSH1 0x0 DUP5 ISZERO PUSH2 0xE94 JUMPI DUP3 DUP8 ADD MLOAD SWAP1 POP JUMPDEST PUSH2 0xE9E DUP6 DUP3 PUSH2 0xE20 JUMP JUMPDEST DUP7 SSTORE POP PUSH2 0xF06 JUMP JUMPDEST PUSH1 0x1F NOT DUP5 AND PUSH2 0xEB4 DUP7 PUSH2 0xC90 JUMP JUMPDEST PUSH1 0x0 JUMPDEST DUP3 DUP2 LT ISZERO PUSH2 0xEDC JUMPI DUP5 DUP10 ADD MLOAD DUP3 SSTORE PUSH1 0x1 DUP3 ADD SWAP2 POP PUSH1 0x20 DUP6 ADD SWAP5 POP PUSH1 0x20 DUP2 ADD SWAP1 POP PUSH2 0xEB7 JUMP JUMPDEST DUP7 DUP4 LT ISZERO PUSH2 0xEF9 JUMPI DUP5 DUP10 ADD MLOAD PUSH2 0xEF5 PUSH1 0x1F DUP10 AND DUP3 PUSH2 0xE02 JUMP JUMPDEST DUP4 SSTORE POP JUMPDEST PUSH1 0x1 PUSH1 0x2 DUP9 MUL ADD DUP9 SSTORE POP POP POP JUMPDEST POP POP POP POP POP POP JUMP INVALID LOG2 PUSH5 0x6970667358 0x22 SLT KECCAK256 GAS GAS CALLDATACOPY 0x4C DIV SWAP13 0xB4 PUSH32 0x24769381526459E56FC7AB5ABDCFE54631F6B01E5944ECEE64736F6C63430008 SGT STOP CALLER "
				},
				"gasEstimates": {
					"creation": {
						"codeDepositCost": "781600",
						"executionCost": "25084",
						"totalCost": "806684"
					},
					"external": {
						"addCandidate(string)": "infinite",
						"candidates(uint256)": "infinite",
						"getCandidate(uint256)": "infinite",
						"getTotalCandidates()": "2482",
						"hasVoted(address)": "2868",
						"owner()": "2577",
						"totalCandidates()": "2451",
						"vote(uint256)": "infinite"
					}
				},
				"methodIdentifiers": {
					"addCandidate(string)": "462e91ec",
					"candidates(uint256)": "3477ee2e",
					"getCandidate(uint256)": "35b8e820",
					"getTotalCandidates()": "0deb56ab",
					"hasVoted(address)": "09eef43e",
					"owner()": "8da5cb5b",
					"totalCandidates()": "3866965c",
					"vote(uint256)": "0121b93f"
				}
			},
			"storageLayout": {
				"storage": [
					{
						"astId": 3,
						"contract": "contracts/VotingGovSys.sol:VotingSystem",
						"label": "owner",
						"offset": 0,
						"slot": "0",
						"type": "t_address"
					},
					{
						"astId": 43,
						"contract": "contracts/VotingGovSys.sol:VotingSystem",
						"label": "candidates",
						"offset": 0,
						"slot": "1",
						"type": "t_mapping(t_uint256,t_struct(Candidate)37_storage)"
					},
					{
						"astId": 47,
						"contract": "contracts/VotingGovSys.sol:VotingSystem",
						"label": "hasVoted",
						"offset": 0,
						"slot": "2",
						"type": "t_mapping(t_address,t_bool)"
					},
					{
						"astId": 49,
						"contract": "contracts/VotingGovSys.sol:VotingSystem",
						"label": "totalCandidates",
						"offset": 0,
						"slot": "3",
						"type": "t_uint256"
					}
				],
				"types": {
					"t_address": {
						"encoding": "inplace",
						"label": "address",
						"numberOfBytes": "20"
					},
					"t_bool": {
						"encoding": "inplace",
						"label": "bool",
						"numberOfBytes": "1"
					},
					"t_mapping(t_address,t_bool)": {
						"encoding": "mapping",
						"key": "t_address",
						"label": "mapping(address => bool)",
						"numberOfBytes": "32",
						"value": "t_bool"
					},
					"t_mapping(t_uint256,t_struct(Candidate)37_storage)": {
						"encoding": "mapping",
						"key": "t_uint256",
						"label": "mapping(uint256 => struct VotingSystem.Candidate)",
						"numberOfBytes": "32",
						"value": "t_struct(Candidate)37_storage"
					},
					"t_string_storage": {
						"encoding": "bytes",
						"label": "string",
						"numberOfBytes": "32"
					},
					"t_struct(Candidate)37_storage": {
						"encoding": "inplace",
						"label": "struct VotingSystem.Candidate",
						"members": [
							{
								"astId": 32,
								"contract": "contracts/VotingGovSys.sol:VotingSystem",
								"label": "id",
								"offset": 0,
								"slot": "0",
								"type": "t_uint256"
							},
							{
								"astId": 34,
								"contract": "contracts/VotingGovSys.sol:VotingSystem",
								"label": "name",
								"offset": 0,
								"slot": "1",
								"type": "t_string_storage"
							},
							{
								"astId": 36,
								"contract": "contracts/VotingGovSys.sol:VotingSystem",
								"label": "voteCount",
								"offset": 0,
								"slot": "2",
								"type": "t_uint256"
							}
						],
						"numberOfBytes": "96"
					},
					"t_uint256": {
						"encoding": "inplace",
						"label": "uint256",
						"numberOfBytes": "32"
					}
				}
			},
			"userdoc": {
				"kind": "user",
				"methods": {
					"addCandidate(string)": {
						"notice": "Adds a new candidate (owner only)"
					},
					"candidates(uint256)": {
						"notice": "Mappings"
					},
					"getCandidate(uint256)": {
						"notice": "Get a candidate's name and vote count"
					},
					"getTotalCandidates()": {
						"notice": "Get the total number of candidates"
					},
					"vote(uint256)": {
						"notice": "Vote for a candidate"
					}
				},
				"version": 1
			}
		}
	}
}